{
  "contractName": "ConfidentialFairExchange",
  "abi": [
    {
      "anonymous": false,
      "inputs": [
        {
          "indexed": true,
          "internalType": "bytes32",
          "name": "purchaseID",
          "type": "bytes32"
        },
        {
          "indexed": false,
          "internalType": "bytes32",
          "name": "encryptedKey",
          "type": "bytes32"
        }
      ],
      "name": "EncryptedKeyPublished",
      "type": "event"
    },
    {
      "anonymous": false,
      "inputs": [
        {
          "indexed": true,
          "internalType": "bytes32",
          "name": "fileHash",
          "type": "bytes32"
        },
        {
          "indexed": false,
          "internalType": "uint256",
          "name": "randomness",
          "type": "uint256"
        }
      ],
      "name": "FileRandomness",
      "type": "event"
    },
    {
      "anonymous": false,
      "inputs": [
        {
          "indexed": true,
          "internalType": "bytes32",
          "name": "fileHash",
          "type": "bytes32"
        },
        {
          "indexed": true,
          "internalType": "bytes32",
          "name": "purchaseID",
          "type": "bytes32"
        },
        {
          "indexed": false,
          "internalType": "bytes32",
          "name": "secretHash",
          "type": "bytes32"
        },
        {
          "indexed": false,
          "internalType": "bytes32",
          "name": "encryptedSecret",
          "type": "bytes32"
        }
      ],
      "name": "PurchaseRequested",
      "type": "event"
    },
    {
      "inputs": [],
      "name": "COLLATERAL",
      "outputs": [
        {
          "internalType": "uint256",
          "name": "",
          "type": "uint256"
        }
      ],
      "stateMutability": "view",
      "type": "function"
    },
    {
      "inputs": [],
      "name": "MAX_INTERVAL",
      "outputs": [
        {
          "internalType": "uint256",
          "name": "",
          "type": "uint256"
        }
      ],
      "stateMutability": "view",
      "type": "function"
    },
    {
      "inputs": [
        {
          "internalType": "bytes32",
          "name": "",
          "type": "bytes32"
        }
      ],
      "name": "fileInfos",
      "outputs": [
        {
          "internalType": "address",
          "name": "seller",
          "type": "address"
        },
        {
          "internalType": "uint256",
          "name": "depth",
          "type": "uint256"
        },
        {
          "internalType": "bytes32",
          "name": "sellerPublicKey",
          "type": "bytes32"
        },
        {
          "internalType": "uint256",
          "name": "price",
          "type": "uint256"
        },
        {
          "internalType": "bytes32",
          "name": "description",
          "type": "bytes32"
        }
      ],
      "stateMutability": "view",
      "type": "function"
    },
    {
      "inputs": [
        {
          "internalType": "bytes32",
          "name": "_fileHash",
          "type": "bytes32"
        },
        {
          "internalType": "uint256",
          "name": "_depth",
          "type": "uint256"
        },
        {
          "internalType": "uint256",
          "name": "_price",
          "type": "uint256"
        },
        {
          "internalType": "bytes32",
          "name": "_sellerPublicKey",
          "type": "bytes32"
        }
      ],
      "name": "publishFile",
      "outputs": [],
      "stateMutability": "nonpayable",
      "type": "function"
    },
    {
      "inputs": [
        {
          "internalType": "bytes32",
          "name": "_fileHash",
          "type": "bytes32"
        },
        {
          "internalType": "bytes32",
          "name": "_description",
          "type": "bytes32"
        }
      ],
      "name": "publishDescription",
      "outputs": [],
      "stateMutability": "nonpayable",
      "type": "function"
    },
    {
      "inputs": [
        {
          "internalType": "bytes32",
          "name": "_fileHash",
          "type": "bytes32"
        },
        {
          "internalType": "bytes32",
          "name": "_secretHash",
          "type": "bytes32"
        },
        {
          "internalType": "bytes32",
          "name": "_encryptedSecret",
          "type": "bytes32"
        }
      ],
      "name": "buy",
      "outputs": [],
      "stateMutability": "payable",
      "type": "function"
    },
    {
      "inputs": [
        {
          "internalType": "bytes32",
          "name": "_encryptedKey",
          "type": "bytes32"
        },
        {
          "internalType": "bytes32",
          "name": "_fileHash",
          "type": "bytes32"
        },
        {
          "internalType": "bytes32",
          "name": "_purchaseID",
          "type": "bytes32"
        }
      ],
      "name": "publishKey",
      "outputs": [],
      "stateMutability": "payable",
      "type": "function"
    },
    {
      "inputs": [
        {
          "internalType": "bytes32",
          "name": "_fileHash",
          "type": "bytes32"
        },
        {
          "internalType": "bytes32",
          "name": "_purchaseID",
          "type": "bytes32"
        },
        {
          "internalType": "bytes32",
          "name": "_secret",
          "type": "bytes32"
        },
        {
          "components": [
            {
              "internalType": "uint256",
              "name": "_committed_ri",
              "type": "uint256"
            },
            {
              "internalType": "bytes32",
              "name": "_committedSubKey",
              "type": "bytes32"
            },
            {
              "internalType": "bytes32[]",
              "name": "_merkleTreePath",
              "type": "bytes32[]"
            }
          ],
          "internalType": "struct ConfidentialFairExchange.POM",
          "name": "pom",
          "type": "tuple"
        }
      ],
      "name": "raiseObjection",
      "outputs": [],
      "stateMutability": "payable",
      "type": "function"
    },
    {
      "inputs": [
        {
          "internalType": "bytes32",
          "name": "_fileHash",
          "type": "bytes32"
        },
        {
          "internalType": "bytes32",
          "name": "_purchaseID",
          "type": "bytes32"
        }
      ],
      "name": "refoundToBuyer",
      "outputs": [],
      "stateMutability": "payable",
      "type": "function"
    },
    {
      "inputs": [
        {
          "internalType": "bytes32",
          "name": "_fileHash",
          "type": "bytes32"
        },
        {
          "internalType": "bytes32",
          "name": "_purchaseID",
          "type": "bytes32"
        }
      ],
      "name": "withdraw",
      "outputs": [],
      "stateMutability": "payable",
      "type": "function"
    }
  ],
  "bytecode": "0x608060405234801561001057600080fd5b506120cf806100206000396000f3fe6080604052600436106100915760003560e01c806381c34e9a1161005957806381c34e9a14610131578063abaf04de1461015a578063d961e0d814610183578063de428ea9146101c4578063fede6114146101e057610091565b806312d9373114610096578063165bea5e146100b257806324bbab8b146100ce578063330ce820146100f95780636361514914610115575b600080fd5b6100b060048036038101906100ab9190611691565b61020b565b005b6100cc60048036038101906100c79190611642565b61066c565b005b3480156100da57600080fd5b506100e361093c565b6040516100f09190611f4d565b60405180910390f35b610113600480360381019061010e9190611606565b610941565b005b61012f600480360381019061012a9190611606565b610bfd565b005b34801561013d57600080fd5b5061015860048036038101906101539190611606565b610ebb565b005b34801561016657600080fd5b50610181600480360381019061017c919061170c565b610fd6565b005b34801561018f57600080fd5b506101aa60048036038101906101a591906115dd565b6111a7565b6040516101bb959493929190611cc4565b60405180910390f35b6101de60048036038101906101d99190611642565b6111fd565b005b3480156101ec57600080fd5b506101f56114b2565b6040516102029190611f4d565b60405180910390f35b8383600180600087815260200190815260200160002060000160009054906101000a900473ffffffffffffffffffffffffffffffffffffffff1682846001600086815260200190815260200160002060000160009054906101000a900473ffffffffffffffffffffffffffffffffffffffff1660405160200161028f929190611d32565b60405160208183030381529060405280519060200120146102e5576040517f08c379a00000000000000000000000000000000000000000000000000000000081526004016102dc90611dad565b60405180910390fd5b8160048111156102f157fe5b6001600085815260200190815260200160002060020160009054906101000a900460ff16600481111561032057fe5b14610360576040517f08c379a000000000000000000000000000000000000000000000000000000000815260040161035790611e2d565b60405180910390fd5b8073ffffffffffffffffffffffffffffffffffffffff163373ffffffffffffffffffffffffffffffffffffffff16146103ce576040517f08c379a00000000000000000000000000000000000000000000000000000000081526004016103c590611dcd565b60405180910390fd5b86610e1060016000838152602001908152602001600020600101540142111561042c576040517f08c379a000000000000000000000000000000000000000000000000000000000815260040161042390611eed565b60405180910390fd5b6001600089815260200190815260200160002060040154876040516020016104549190611c7d565b60405160208183030381529060405280519060200120146104aa576040517f08c379a00000000000000000000000000000000000000000000000000000000081526004016104a190611ecd565b60405180910390fd5b600087600160008b81526020019081526020016000206003015418905060008188600001516040516020016104e0929190611d84565b6040516020818303038152906040528051906020012090508760200151811461065f57600088602001518960000151604051602001610520929190611d84565b60405160208183030381529060405280519060200120905060005b6000808e8152602001908152602001600020600101548110156105a757818a60400151828151811061056957fe5b6020026020010151604051602001610582929190611d5b565b604051602081830303815290604052805190602001209150808060010191505061053b565b506000808d81526020019081526020016000206004015481141561065d576003600160008d815260200190815260200160002060020160006101000a81548160ff021916908360048111156105f857fe5b02179055503373ffffffffffffffffffffffffffffffffffffffff166108fc6000808f8152602001908152602001600020600301546064019081150290604051600060405180830381858888f1935050505015801561065b573d6000803e3d6000fd5b505b505b5050505050505050505050565b8181600080600086815260200190815260200160002060000160009054906101000a900473ffffffffffffffffffffffffffffffffffffffff1682846001600086815260200190815260200160002060000160009054906101000a900473ffffffffffffffffffffffffffffffffffffffff166040516020016106f0929190611d32565b6040516020818303038152906040528051906020012014610746576040517f08c379a000000000000000000000000000000000000000000000000000000000815260040161073d90611dad565b60405180910390fd5b81600481111561075257fe5b6001600085815260200190815260200160002060020160009054906101000a900460ff16600481111561078157fe5b146107c1576040517f08c379a00000000000000000000000000000000000000000000000000000000081526004016107b890611e2d565b60405180910390fd5b8073ffffffffffffffffffffffffffffffffffffffff163373ffffffffffffffffffffffffffffffffffffffff161461082f576040517f08c379a000000000000000000000000000000000000000000000000000000000815260040161082690611dcd565b60405180910390fd5b84610e1060016000838152602001908152602001600020600101540142111561088d576040517f08c379a000000000000000000000000000000000000000000000000000000000815260040161088490611eed565b60405180910390fd5b876001600088815260200190815260200160002060030181905550600180600088815260200190815260200160002060020160006101000a81548160ff021916908360048111156108da57fe5b0217905550426001600088815260200190815260200160002060010181905550857f62eb13606cfcd72bc7ed386e47e566f10e24a4fce72760cdac081d1d68dda4388960405161092a9190611d17565b60405180910390a25050505050505050565b606481565b818160006001600085815260200190815260200160002060000160009054906101000a900473ffffffffffffffffffffffffffffffffffffffff1682846001600086815260200190815260200160002060000160009054906101000a900473ffffffffffffffffffffffffffffffffffffffff166040516020016109c6929190611d32565b6040516020818303038152906040528051906020012014610a1c576040517f08c379a0000000000000000000000000000000000000000000000000000000008152600401610a1390611dad565b60405180910390fd5b816004811115610a2857fe5b6001600085815260200190815260200160002060020160009054906101000a900460ff166004811115610a5757fe5b14610a97576040517f08c379a0000000000000000000000000000000000000000000000000000000008152600401610a8e90611e2d565b60405180910390fd5b8073ffffffffffffffffffffffffffffffffffffffff163373ffffffffffffffffffffffffffffffffffffffff1614610b05576040517f08c379a0000000000000000000000000000000000000000000000000000000008152600401610afc90611dcd565b60405180910390fd5b42610e1060016000888152602001908152602001600020600101540110610b61576040517f08c379a0000000000000000000000000000000000000000000000000000000008152600401610b5890611f0d565b60405180910390fd5b60046001600087815260200190815260200160002060020160006101000a81548160ff02191690836004811115610b9457fe5b02179055503373ffffffffffffffffffffffffffffffffffffffff166108fc600080898152602001908152602001600020600301549081150290604051600060405180830381858888f19350505050158015610bf4573d6000803e3d6000fd5b50505050505050565b8181600160008086815260200190815260200160002060000160009054906101000a900473ffffffffffffffffffffffffffffffffffffffff1682846001600086815260200190815260200160002060000160009054906101000a900473ffffffffffffffffffffffffffffffffffffffff16604051602001610c81929190611d32565b6040516020818303038152906040528051906020012014610cd7576040517f08c379a0000000000000000000000000000000000000000000000000000000008152600401610cce90611dad565b60405180910390fd5b816004811115610ce357fe5b6001600085815260200190815260200160002060020160009054906101000a900460ff166004811115610d1257fe5b14610d52576040517f08c379a0000000000000000000000000000000000000000000000000000000008152600401610d4990611e2d565b60405180910390fd5b8073ffffffffffffffffffffffffffffffffffffffff163373ffffffffffffffffffffffffffffffffffffffff1614610dc0576040517f08c379a0000000000000000000000000000000000000000000000000000000008152600401610db790611dcd565b60405180910390fd5b42610e1060016000888152602001908152602001600020600101540110610e1c576040517f08c379a0000000000000000000000000000000000000000000000000000000008152600401610e1390611e4d565b60405180910390fd5b60026001600087815260200190815260200160002060020160006101000a81548160ff02191690836004811115610e4f57fe5b02179055503373ffffffffffffffffffffffffffffffffffffffff166108fc60646000808a815260200190815260200160002060030154019081150290604051600060405180830381858888f19350505050158015610eb2573d6000803e3d6000fd5b50505050505050565b3373ffffffffffffffffffffffffffffffffffffffff1660008084815260200190815260200160002060000160009054906101000a900473ffffffffffffffffffffffffffffffffffffffff1673ffffffffffffffffffffffffffffffffffffffff1614610f5e576040517f08c379a0000000000000000000000000000000000000000000000000000000008152600401610f5590611e0d565b60405180910390fd5b6000801b6000808481526020019081526020016000206004015414610fb8576040517f08c379a0000000000000000000000000000000000000000000000000000000008152600401610faf90611f2d565b60405180910390fd5b80600080848152602001908152602001600020600401819055505050565b600073ffffffffffffffffffffffffffffffffffffffff1660008086815260200190815260200160002060000160009054906101000a900473ffffffffffffffffffffffffffffffffffffffff1673ffffffffffffffffffffffffffffffffffffffff161461107a576040517f08c379a000000000000000000000000000000000000000000000000000000000815260040161107190611ead565b60405180910390fd5b6040518060a001604052803373ffffffffffffffffffffffffffffffffffffffff1681526020018481526020018281526020018381526020016000801b81525060008086815260200190815260200160002060008201518160000160006101000a81548173ffffffffffffffffffffffffffffffffffffffff021916908373ffffffffffffffffffffffffffffffffffffffff16021790555060208201518160010155604082015181600201556060820151816003015560808201518160040155905050837f8e3b76238df236816578eb0bb931ab096b4688aabbbff9c932ef58afc0796e544442604051602001611173929190611c98565b6040516020818303038152906040528051906020012060001c6040516111999190611f4d565b60405180910390a250505050565b60006020528060005260406000206000915090508060000160009054906101000a900473ffffffffffffffffffffffffffffffffffffffff16908060010154908060020154908060030154908060040154905085565b600073ffffffffffffffffffffffffffffffffffffffff1660008085815260200190815260200160002060000160009054906101000a900473ffffffffffffffffffffffffffffffffffffffff1673ffffffffffffffffffffffffffffffffffffffff1614156112a2576040517f08c379a000000000000000000000000000000000000000000000000000000000815260040161129990611e6d565b60405180910390fd5b6000801b6000808581526020019081526020016000206004015414156112fd576040517f08c379a00000000000000000000000000000000000000000000000000000000081526004016112f490611ded565b60405180910390fd5b600080848152602001908152602001600020600301543414611354576040517f08c379a000000000000000000000000000000000000000000000000000000000815260040161134b90611e8d565b60405180910390fd5b60003384604051602001611369929190611c51565b6040516020818303038152906040528051906020012090506040518060a001604052803373ffffffffffffffffffffffffffffffffffffffff168152602001428152602001600060048111156113bb57fe5b81526020016000801b8152602001848152506001600083815260200190815260200160002060008201518160000160006101000a81548173ffffffffffffffffffffffffffffffffffffffff021916908373ffffffffffffffffffffffffffffffffffffffff1602179055506020820151816001015560408201518160020160006101000a81548160ff0219169083600481111561145557fe5b0217905550606082015181600301556080820151816004015590505080847f7753d16ee8010f36f0f58115989c1010438224093244666e6b047250265022db85856040516114a4929190611d5b565b60405180910390a350505050565b610e1081565b600082601f8301126114c957600080fd5b81356114dc6114d782611f95565b611f68565b9150818183526020840193506020810190508385602084028201111561150157600080fd5b60005b838110156115315781611517888261153b565b845260208401935060208301925050600181019050611504565b5050505092915050565b60008135905061154a8161206b565b92915050565b60006060828403121561156257600080fd5b61156c6060611f68565b9050600061157c848285016115c8565b60008301525060206115908482850161153b565b602083015250604082013567ffffffffffffffff8111156115b057600080fd5b6115bc848285016114b8565b60408301525092915050565b6000813590506115d781612082565b92915050565b6000602082840312156115ef57600080fd5b60006115fd8482850161153b565b91505092915050565b6000806040838503121561161957600080fd5b60006116278582860161153b565b92505060206116388582860161153b565b9150509250929050565b60008060006060848603121561165757600080fd5b60006116658682870161153b565b93505060206116768682870161153b565b92505060406116878682870161153b565b9150509250925092565b600080600080608085870312156116a757600080fd5b60006116b58782880161153b565b94505060206116c68782880161153b565b93505060406116d78782880161153b565b925050606085013567ffffffffffffffff8111156116f457600080fd5b61170087828801611550565b91505092959194509250565b6000806000806080858703121561172257600080fd5b60006117308782880161153b565b9450506020611741878288016115c8565b9350506040611752878288016115c8565b92505060606117638782880161153b565b91505092959194509250565b61178061177b82611fe0565b612026565b82525050565b61178f81611fce565b82525050565b61179e81611ff2565b82525050565b6117b56117b082611ff2565b612038565b82525050565b60006117c8601183611fbd565b91507f57726f6e672070757263686173652049440000000000000000000000000000006000830152602082019050919050565b6000611808601583611fbd565b91507f57726f6e672066756e6374696f6e2063616c6c657200000000000000000000006000830152602082019050919050565b6000611848602f83611fbd565b91507f54686520636f6e736964657265642066696c6520686173206e6f74206465736360008301527f72697074696f6e207365742079657400000000000000000000000000000000006020830152604082019050919050565b60006118ae602783611fbd565b91507f4f6e6c79207468652073656c6c65722063616e2073657420746865206465736360008301527f72697074696f6e000000000000000000000000000000000000000000000000006020830152604082019050919050565b6000611914601b83611fbd565b91507f507572636861736520696e207468652077726f6e6720737461746500000000006000830152602082019050919050565b6000611954602783611fbd565b91507f54686520627579657220686173207374696c6c2074696d6520746f207368617260008301527f65206120504f4d000000000000000000000000000000000000000000000000006020830152604082019050919050565b60006119ba603883611fbd565b91507f4e6f2066696c652077697468207265717565737465642068617368206973207060008301527f726573656e7420696e73696465207468652073797374656d00000000000000006020830152604082019050919050565b6000611a20603583611fbd565b91507f5468652073656e7420616d6f756e74206f66206d6f6e6579206973206c6f776560008301527f72207468616e207468652066696c6520707269636500000000000000000000006020830152604082019050919050565b6000611a86602383611fbd565b91507f5468652066696c652068617320616c7265616479206265656e207075626c697360008301527f68656400000000000000000000000000000000000000000000000000000000006020830152604082019050919050565b6000611aec601883611fbd565b91507f50726f7669646564207365637265742069732077726f6e6700000000000000006000830152602082019050919050565b6000611b2c601383611fbd565b91507f4d61782074696d656f75742072656163686564000000000000000000000000006000830152602082019050919050565b6000611b6c603483611fbd565b91507f5468652073656c6c657220686173207374696c6c2074696d6520746f2073686160008301527f72652074686520656e63727970746564206b65790000000000000000000000006020830152604082019050919050565b6000611bd2602483611fbd565b91507f546865206465736372697074696f6e2068617320616c7265616479206265656e60008301527f20736574000000000000000000000000000000000000000000000000000000006020830152604082019050919050565b611c348161201c565b82525050565b611c4b611c468261201c565b612054565b82525050565b6000611c5d828561176f565b601482019150611c6d82846117a4565b6020820191508190509392505050565b6000611c8982846117a4565b60208201915081905092915050565b6000611ca48285611c3a565b602082019150611cb48284611c3a565b6020820191508190509392505050565b600060a082019050611cd96000830188611786565b611ce66020830187611c2b565b611cf36040830186611795565b611d006060830185611c2b565b611d0d6080830184611795565b9695505050505050565b6000602082019050611d2c6000830184611795565b92915050565b6000604082019050611d476000830185611795565b611d546020830184611786565b9392505050565b6000604082019050611d706000830185611795565b611d7d6020830184611795565b9392505050565b6000604082019050611d996000830185611795565b611da66020830184611c2b565b9392505050565b60006020820190508181036000830152611dc6816117bb565b9050919050565b60006020820190508181036000830152611de6816117fb565b9050919050565b60006020820190508181036000830152611e068161183b565b9050919050565b60006020820190508181036000830152611e26816118a1565b9050919050565b60006020820190508181036000830152611e4681611907565b9050919050565b60006020820190508181036000830152611e6681611947565b9050919050565b60006020820190508181036000830152611e86816119ad565b9050919050565b60006020820190508181036000830152611ea681611a13565b9050919050565b60006020820190508181036000830152611ec681611a79565b9050919050565b60006020820190508181036000830152611ee681611adf565b9050919050565b60006020820190508181036000830152611f0681611b1f565b9050919050565b60006020820190508181036000830152611f2681611b5f565b9050919050565b60006020820190508181036000830152611f4681611bc5565b9050919050565b6000602082019050611f626000830184611c2b565b92915050565b6000604051905081810181811067ffffffffffffffff82111715611f8b57600080fd5b8060405250919050565b600067ffffffffffffffff821115611fac57600080fd5b602082029050602081019050919050565b600082825260208201905092915050565b6000611fd982611ffc565b9050919050565b6000611feb82611ffc565b9050919050565b6000819050919050565b600073ffffffffffffffffffffffffffffffffffffffff82169050919050565b6000819050919050565b600061203182612042565b9050919050565b6000819050919050565b600061204d8261205e565b9050919050565b6000819050919050565b60008160601b9050919050565b61207481611ff2565b811461207f57600080fd5b50565b61208b8161201c565b811461209657600080fd5b5056fea26469706673582212208ddaee101a04f11100b494d37cb259c57d8926a8dcef602249b8649120137e3464736f6c63430007000033",
  "source": "// SPDX-License-Identifier: GPL-3.0\r\npragma solidity >=0.7.0 <0.9.0;\r\npragma experimental ABIEncoderV2;\r\n\r\ncontract ConfidentialFairExchange {\r\n   \r\n    uint constant public MAX_INTERVAL = 3600; // 1 h timemax inteval between operations \r\n    uint constant public COLLATERAL = 100 wei; // TODO: substitute with actual depth-depending cost \r\n\r\n    /******** INIT PHASE *******/\r\n    event FileRandomness(bytes32 indexed fileHash, uint randomness); \r\n    \r\n    // struct containing info about the file to sell \r\n    struct FileInfo {\r\n        address seller; \r\n        uint depth; \r\n        bytes32 sellerPublicKey; \r\n        uint price; \r\n        bytes32 description; \r\n    }\r\n\r\n    // mapping associating to each hash the corrisponding FileInfo struct \r\n    mapping(bytes32 => FileInfo) public fileInfos; \r\n\r\n    function publishFile(bytes32 _fileHash, uint _depth, uint _price, bytes32 _sellerPublicKey) public {\r\n        require(fileInfos[_fileHash].seller == address(0), \"The file has already been published\"); \r\n\r\n        fileInfos[_fileHash] = FileInfo(msg.sender, _depth, _sellerPublicKey, _price, 0); \r\n        emit FileRandomness(_fileHash, uint(keccak256(abi.encodePacked(block.difficulty, block.timestamp))));\r\n    }\r\n\r\n    function publishDescription(bytes32 _fileHash, bytes32 _description) public {\r\n        require(fileInfos[_fileHash].seller == msg.sender, \"Only the seller can set the description\"); \r\n        require(fileInfos[_fileHash].description == 0, \"The description has already been set\"); \r\n\r\n        fileInfos[_fileHash].description = _description; \r\n    }\r\n\r\n    /**** BUYING PHASE *****/\r\n    event PurchaseRequested(bytes32 indexed fileHash, bytes32 indexed purchaseID, bytes32 secretHash, bytes32 encryptedSecret); \r\n    event EncryptedKeyPublished(bytes32 indexed purchaseID, bytes32 encryptedKey); \r\n\r\n    enum State { Requested, EncryptedKeyShared, Completed, Invalid, Timeout} \r\n    struct Purchase { \r\n        address buyer; \r\n        uint lastOperationTime; \r\n        State state; \r\n        bytes32 encryptedKey;\r\n        bytes32 secretHash;  \r\n    }\r\n\r\n    mapping(bytes32 => Purchase) purchases; \r\n    function buy(bytes32 _fileHash, bytes32 _secretHash, bytes32 _encryptedSecret) \r\n        public payable {\r\n        \r\n        require(fileInfos[_fileHash].seller != address(0), \"No file with requested hash is present inside the system\"); \r\n        require(fileInfos[_fileHash].description != 0, \"The considered file has not description set yet\");  \r\n        require(msg.value == fileInfos[_fileHash].price, \"The sent amount of money is lower than the file price\"); \r\n\r\n        bytes32 purchaseID = bytes32(keccak256(abi.encodePacked(msg.sender, _fileHash)));        \r\n        purchases[purchaseID] = Purchase(msg.sender, block.timestamp, State.Requested, 0, _secretHash);  \r\n\r\n        emit PurchaseRequested(_fileHash, purchaseID, _secretHash, _encryptedSecret);\r\n    }\r\n\r\n    /* buyer call buy -> seller check H(D(_encryptedSecret)) == _secretHash  \r\n        -> if false: wait MAX_INTERVAL and call withdraw \r\n        -> if true: call publishKey (with collateral)\r\n    */ \r\n    function publishKey(bytes32 _encryptedKey, bytes32 _fileHash, bytes32 _purchaseID) \r\n        Only(_fileHash, _purchaseID, State.Requested, fileInfos[_fileHash].seller)\r\n        InTime(_purchaseID) \r\n        public payable {\r\n        \r\n        purchases[_purchaseID].encryptedKey = _encryptedKey; \r\n        purchases[_purchaseID].state = State.EncryptedKeyShared; \r\n        purchases[_purchaseID].lastOperationTime = block.timestamp; \r\n        emit EncryptedKeyPublished(_purchaseID, _encryptedKey);\r\n    }\r\n\r\n    // Complain about the goods by proving that \r\n    //  i. a committed subkey is different from the subkey derived from the master key; and\r\n    // ii. and this committed subkey is part of the description.\r\n    struct POM {\r\n        uint _committed_ri; \r\n        bytes32 _committedSubKey; \r\n        bytes32[] _merkleTreePath; \r\n    }\r\n    function raiseObjection(bytes32 _fileHash, bytes32 _purchaseID, bytes32 _secret,\r\n        POM memory pom)\r\n        Only(_fileHash, _purchaseID, State.EncryptedKeyShared, purchases[_purchaseID].buyer)\r\n        InTime(_purchaseID)\r\n        public\r\n        payable\r\n    {\r\n        require(keccak256(abi.encodePacked(_secret)) == purchases[_purchaseID].secretHash, \"Provided secret is wrong\"); \r\n        bytes32 key = purchases[_purchaseID].encryptedKey ^ _secret; \r\n        \r\n        bytes32 computedSubkey = keccak256(abi.encode(key, pom._committed_ri));\r\n        // Check if the subkey supplied by buyer is different from the subkey derived from masterKey.\r\n        if (computedSubkey != pom._committedSubKey) {\r\n            bytes32 committedNode = keccak256(abi.encode(pom._committedSubKey, pom._committed_ri));\r\n            \r\n            // When the loop exits, committedNode will hold the root of Merkle Tree.\r\n            for (uint i = 0; i < fileInfos[_fileHash].depth; i++)\r\n                committedNode = keccak256(abi.encode(committedNode, pom._merkleTreePath[i]));\r\n            \r\n            // Check if the root equals description.\r\n            if (committedNode == fileInfos[_fileHash].description) {\r\n                // If so, the buyer is right and gets the deposit + collateral back.\r\n                purchases[_purchaseID].state = State.Invalid; \r\n                payable(msg.sender).transfer(COLLATERAL + fileInfos[_fileHash].price);\r\n            }\r\n        }\r\n    }\r\n\r\n    // Refund to buyer if seller does not publish master key in time.   \r\n    function refoundToBuyer(bytes32 _fileHash, bytes32 _purchaseID)\r\n        Only(_fileHash, _purchaseID, State.Requested, purchases[_purchaseID].buyer)\r\n        public payable {\r\n        \r\n        require(purchases[_purchaseID].lastOperationTime + MAX_INTERVAL < block.timestamp, \"The seller has still time to share the encrypted key\"); \r\n        purchases[_purchaseID].state = State.Timeout; \r\n        payable(msg.sender).transfer(fileInfos[_fileHash].price);\r\n    }\r\n\r\n    function withdraw(bytes32 _fileHash, bytes32 _purchaseID) \r\n        Only(_fileHash, _purchaseID, State.EncryptedKeyShared, fileInfos[_fileHash].seller)\r\n        public payable \r\n    {\r\n        require(purchases[_purchaseID].lastOperationTime + MAX_INTERVAL < block.timestamp, \"The buyer has still time to share a POM\"); \r\n        purchases[_purchaseID].state = State.Completed; \r\n        payable(msg.sender).transfer(fileInfos[_fileHash].price + COLLATERAL);\r\n    }\r\n     \r\n    modifier InTime(bytes32 _purchaseID) {\r\n        require(block.timestamp <= purchases[_purchaseID].lastOperationTime + MAX_INTERVAL, \"Max timeout reached\"); \r\n        _; \r\n    }\r\n\r\n    modifier Only(bytes32 _fileHash, bytes32 _purchaseID, State _state, address caller) {\r\n        require(keccak256(abi.encode(_fileHash, purchases[_purchaseID].buyer)) == _purchaseID, \"Wrong purchase ID\"); \r\n        require(purchases[_purchaseID].state == _state, \"Purchase in the wrong state\"); \r\n        require(msg.sender == caller, \"Wrong function caller\"); \r\n        _;\r\n    }\r\n}\r\n\r\n/*\r\n address payable seller;\r\n    address payable buyer = payable(address(0)); // BUYER_ADDRESS_HERE;\r\n\r\n    // Added 10 minutes to timeout in each function call.\r\n    uint timeout;\r\n\r\n    uint constant depth= 16; // DEPTH_OF_MERKLE_TREE;\r\n    uint constant price = 1 wei; // GOODS_PRICE;\r\n\r\n    bytes32 description;\r\n    bytes32 public masterKey;\r\n\r\n\r\n\r\n    event PaidWithDescription();\r\n    event PublishedMasterKey();\r\n    event ExecutionCompleted();\r\n\r\n    constructor() public payable {\r\n        seller = payable(msg.sender);\r\n    }\r\n\r\n    // Deposit the goods' price and assign description.\r\n    function PayWithDescription(bytes32 _description)\r\n        public\r\n        only(buyer, State.Created, msg.value == price)\r\n        payable\r\n    {\r\n        emit PaidWithDescription();\r\n        state = State.Paid;\r\n        description = _description;\r\n        timeout = block.timestamp + 10 minutes;\r\n    }\r\n\r\n    // Refund to buyer if seller does not publish master key in time.\r\n    function RefundToBuyer()\r\n        public\r\n        only(buyer, State.Paid, block.timestamp > timeout)\r\n        payable\r\n    {\r\n        emit ExecutionCompleted();\r\n        state = State.Inactive;\r\n        selfdestruct(buyer);\r\n    }\r\n\r\n    // Publish the master key.\r\n    function PublishMasterKey(bytes32 _masterKey)\r\n        public\r\n        only(seller, State.Paid, true)\r\n    {\r\n        emit PublishedMasterKey();\r\n        state = State.Published;\r\n        masterKey = _masterKey;\r\n        timeout = block.timestamp + 10 minutes;\r\n    }\r\n\r\n    // Complain about the goods by proving that \r\n    //  i. a committed subkey is different from the subkey derived from the master key; and\r\n    // ii. and this committed subkey is part of the description.\r\n    function RaiseObjection(uint _committed_ri, bytes32 _committedSubKey, bytes32[] memory _merkleTreePath)\r\n        public\r\n        only(buyer, State.Published, block.timestamp < timeout)\r\n        payable\r\n    {\r\n        bytes32 computedSubkey = keccak256(abi.encode(masterKey, _committed_ri));\r\n        // Check if the subkey supplied by buyer is different from the subkey derived from masterKey.\r\n        if (computedSubkey != _committedSubKey)\r\n        {\r\n            bytes32 committedNode = keccak256(abi.encode(_committedSubKey, _committed_ri));\r\n            \r\n            // When the loop exits, committedNode will hold the root of Merkle Tree.\r\n            for (uint i = 0; i < depth; i++)\r\n                committedNode = keccak256(abi.encode(committedNode, _merkleTreePath[i]));\r\n            \r\n            // Check if the root equals description.\r\n            if (committedNode == description)\r\n            {\r\n                // If so, the buyer is right and gets the deposit back.\r\n                emit ExecutionCompleted();\r\n                state = State.Inactive;\r\n                selfdestruct(buyer);\r\n            }\r\n        }\r\n    }\r\n\r\n    // If objection timeouts, transfer the balance to seller and destruct the contract.\r\n    function TransferToSeller()\r\n        public\r\n        only(seller, State.Published, block.timestamp > timeout)\r\n    {\r\n        emit ExecutionCompleted();\r\n        state = State.Inactive;\r\n        selfdestruct(seller);\r\n    }\r\n\r\n    // Check if all required conditions are satisfied.\r\n    modifier only(address _address, State _state, bool _condition)\r\n    {\r\n        require(msg.sender == _address);\r\n        require(state == _state);\r\n        require(_condition);\r\n        _;\r\n    }\r\n    */",
  "sourcePath": "C:\\Users\\Egon\\Desktop\\Thesis\\confidential-fair-exchange\\contracts\\fairdex.sol",
  "compiler": {
    "name": "solc",
    "version": "0.7.0+commit.9e61f92b.Emscripten.clang",
    "optimizer": false,
    "runs": 200
  },
  "schemaVersion": "2.3.5",
  "updatedAt": "2022-06-30T10:31:27.897Z"
}