{
  "contractName": "ConfidentialFairExchange",
  "abi": [
    {
      "anonymous": false,
      "inputs": [
        {
          "indexed": true,
          "internalType": "bytes32",
          "name": "purchaseID",
          "type": "bytes32"
        },
        {
          "indexed": false,
          "internalType": "bytes32",
          "name": "encryptedKey",
          "type": "bytes32"
        }
      ],
      "name": "EncryptedKeyPublished",
      "type": "event"
    },
    {
      "anonymous": false,
      "inputs": [
        {
          "indexed": true,
          "internalType": "bytes32",
          "name": "fileHash",
          "type": "bytes32"
        },
        {
          "indexed": false,
          "internalType": "bytes32",
          "name": "description",
          "type": "bytes32"
        }
      ],
      "name": "FilePublished",
      "type": "event"
    },
    {
      "anonymous": false,
      "inputs": [
        {
          "indexed": true,
          "internalType": "bytes32",
          "name": "fileHash",
          "type": "bytes32"
        },
        {
          "indexed": false,
          "internalType": "uint256",
          "name": "randomness",
          "type": "uint256"
        }
      ],
      "name": "FileRandomness",
      "type": "event"
    },
    {
      "anonymous": false,
      "inputs": [
        {
          "indexed": true,
          "internalType": "bytes32",
          "name": "fileHash",
          "type": "bytes32"
        },
        {
          "indexed": true,
          "internalType": "bytes32",
          "name": "purchaseID",
          "type": "bytes32"
        },
        {
          "indexed": false,
          "internalType": "bytes32",
          "name": "secretHash",
          "type": "bytes32"
        },
        {
          "indexed": false,
          "internalType": "bytes32",
          "name": "encryptedSecret",
          "type": "bytes32"
        }
      ],
      "name": "PurchaseRequested",
      "type": "event"
    },
    {
      "inputs": [],
      "name": "COLLATERAL",
      "outputs": [
        {
          "internalType": "uint256",
          "name": "",
          "type": "uint256"
        }
      ],
      "stateMutability": "view",
      "type": "function"
    },
    {
      "inputs": [],
      "name": "MAX_INTERVAL",
      "outputs": [
        {
          "internalType": "uint256",
          "name": "",
          "type": "uint256"
        }
      ],
      "stateMutability": "view",
      "type": "function"
    },
    {
      "inputs": [
        {
          "internalType": "bytes32",
          "name": "",
          "type": "bytes32"
        }
      ],
      "name": "fileInfos",
      "outputs": [
        {
          "internalType": "address",
          "name": "seller",
          "type": "address"
        },
        {
          "internalType": "uint256",
          "name": "depth",
          "type": "uint256"
        },
        {
          "internalType": "bytes32",
          "name": "sellerPublicKey",
          "type": "bytes32"
        },
        {
          "internalType": "uint256",
          "name": "price",
          "type": "uint256"
        },
        {
          "internalType": "bytes32",
          "name": "description",
          "type": "bytes32"
        }
      ],
      "stateMutability": "view",
      "type": "function"
    },
    {
      "inputs": [
        {
          "internalType": "bytes32",
          "name": "_fileHash",
          "type": "bytes32"
        },
        {
          "internalType": "uint256",
          "name": "_depth",
          "type": "uint256"
        },
        {
          "internalType": "uint256",
          "name": "_price",
          "type": "uint256"
        },
        {
          "internalType": "bytes32",
          "name": "_sellerPublicKey",
          "type": "bytes32"
        }
      ],
      "name": "publishFile",
      "outputs": [],
      "stateMutability": "nonpayable",
      "type": "function"
    },
    {
      "inputs": [
        {
          "internalType": "bytes32",
          "name": "_fileHash",
          "type": "bytes32"
        },
        {
          "internalType": "bytes32",
          "name": "_description",
          "type": "bytes32"
        }
      ],
      "name": "publishDescription",
      "outputs": [],
      "stateMutability": "nonpayable",
      "type": "function"
    },
    {
      "inputs": [
        {
          "internalType": "bytes32",
          "name": "_fileHash",
          "type": "bytes32"
        },
        {
          "internalType": "bytes32",
          "name": "_secretHash",
          "type": "bytes32"
        },
        {
          "internalType": "bytes32",
          "name": "_encryptedSecret",
          "type": "bytes32"
        }
      ],
      "name": "buy",
      "outputs": [],
      "stateMutability": "payable",
      "type": "function"
    },
    {
      "inputs": [
        {
          "internalType": "bytes32",
          "name": "_encryptedKey",
          "type": "bytes32"
        },
        {
          "internalType": "bytes32",
          "name": "_fileHash",
          "type": "bytes32"
        },
        {
          "internalType": "bytes32",
          "name": "_purchaseID",
          "type": "bytes32"
        }
      ],
      "name": "publishKey",
      "outputs": [],
      "stateMutability": "payable",
      "type": "function"
    },
    {
      "inputs": [
        {
          "internalType": "bytes32",
          "name": "_fileHash",
          "type": "bytes32"
        },
        {
          "internalType": "bytes32",
          "name": "_purchaseID",
          "type": "bytes32"
        },
        {
          "internalType": "bytes32",
          "name": "_secret",
          "type": "bytes32"
        },
        {
          "components": [
            {
              "internalType": "uint256",
              "name": "_committed_ri",
              "type": "uint256"
            },
            {
              "internalType": "bytes32",
              "name": "_committedSubKey",
              "type": "bytes32"
            },
            {
              "internalType": "bytes32[]",
              "name": "_merkleTreePath",
              "type": "bytes32[]"
            }
          ],
          "internalType": "struct ConfidentialFairExchange.POM",
          "name": "pom",
          "type": "tuple"
        }
      ],
      "name": "raiseObjection",
      "outputs": [],
      "stateMutability": "payable",
      "type": "function"
    },
    {
      "inputs": [
        {
          "internalType": "bytes32",
          "name": "_fileHash",
          "type": "bytes32"
        },
        {
          "internalType": "bytes32",
          "name": "_purchaseID",
          "type": "bytes32"
        }
      ],
      "name": "refundToBuyer",
      "outputs": [],
      "stateMutability": "payable",
      "type": "function"
    },
    {
      "inputs": [
        {
          "internalType": "bytes32",
          "name": "_fileHash",
          "type": "bytes32"
        },
        {
          "internalType": "bytes32",
          "name": "_purchaseID",
          "type": "bytes32"
        }
      ],
      "name": "withdraw",
      "outputs": [],
      "stateMutability": "payable",
      "type": "function"
    }
  ],
  "bytecode": "0x608060405234801561001057600080fd5b50612133806100206000396000f3fe6080604052600436106100915760003560e01c8063abaf04de11610059578063abaf04de1461013e578063d961e0d814610167578063de428ea9146101a8578063f704d82d146101c4578063fede6114146101e057610091565b806312d9373114610096578063165bea5e146100b257806324bbab8b146100ce57806363615149146100f957806381c34e9a14610115575b600080fd5b6100b060048036038101906100ab91906116c9565b61020b565b005b6100cc60048036038101906100c7919061167a565b61066c565b005b3480156100da57600080fd5b506100e361093c565b6040516100f09190611f9f565b60405180910390f35b610113600480360381019061010e919061163e565b610941565b005b34801561012157600080fd5b5061013c6004803603810190610137919061163e565b610bff565b005b34801561014a57600080fd5b5061016560048036038101906101609190611744565b610d52565b005b34801561017357600080fd5b5061018e60048036038101906101899190611615565b610f23565b60405161019f959493929190611d3f565b60405180910390f35b6101c260048036038101906101bd919061167a565b610f79565b005b6101de60048036038101906101d9919061163e565b61122e565b005b3480156101ec57600080fd5b506101f56114ea565b6040516102029190611f9f565b60405180910390f35b8383600180600087815260200190815260200160002060000160009054906101000a900473ffffffffffffffffffffffffffffffffffffffff16826001600085815260200190815260200160002060000160009054906101000a900473ffffffffffffffffffffffffffffffffffffffff168560405160200161028f929190611ccc565b60405160208183030381529060405280519060200120146102e5576040517f08c379a00000000000000000000000000000000000000000000000000000000081526004016102dc90611dff565b60405180910390fd5b8160048111156102f157fe5b6001600085815260200190815260200160002060020160009054906101000a900460ff16600481111561032057fe5b14610360576040517f08c379a000000000000000000000000000000000000000000000000000000000815260040161035790611e7f565b60405180910390fd5b8073ffffffffffffffffffffffffffffffffffffffff163373ffffffffffffffffffffffffffffffffffffffff16146103ce576040517f08c379a00000000000000000000000000000000000000000000000000000000081526004016103c590611e1f565b60405180910390fd5b86610e1060016000838152602001908152602001600020600101540142111561042c576040517f08c379a000000000000000000000000000000000000000000000000000000000815260040161042390611f3f565b60405180910390fd5b6001600089815260200190815260200160002060040154876040516020016104549190611cf8565b60405160208183030381529060405280519060200120146104aa576040517f08c379a00000000000000000000000000000000000000000000000000000000081526004016104a190611f1f565b60405180910390fd5b600087600160008b81526020019081526020016000206003015418905060008188600001516040516020016104e0929190611dd6565b6040516020818303038152906040528051906020012090508760200151811461065f57600088602001518960000151604051602001610520929190611dd6565b60405160208183030381529060405280519060200120905060005b6000808e8152602001908152602001600020600101548110156105a757818a60400151828151811061056957fe5b6020026020010151604051602001610582929190611dad565b604051602081830303815290604052805190602001209150808060010191505061053b565b506000808d81526020019081526020016000206004015481141561065d576003600160008d815260200190815260200160002060020160006101000a81548160ff021916908360048111156105f857fe5b02179055503373ffffffffffffffffffffffffffffffffffffffff166108fc6000808f8152602001908152602001600020600301546064019081150290604051600060405180830381858888f1935050505015801561065b573d6000803e3d6000fd5b505b505b5050505050505050505050565b8181600080600086815260200190815260200160002060000160009054906101000a900473ffffffffffffffffffffffffffffffffffffffff16826001600085815260200190815260200160002060000160009054906101000a900473ffffffffffffffffffffffffffffffffffffffff16856040516020016106f0929190611ccc565b6040516020818303038152906040528051906020012014610746576040517f08c379a000000000000000000000000000000000000000000000000000000000815260040161073d90611dff565b60405180910390fd5b81600481111561075257fe5b6001600085815260200190815260200160002060020160009054906101000a900460ff16600481111561078157fe5b146107c1576040517f08c379a00000000000000000000000000000000000000000000000000000000081526004016107b890611e7f565b60405180910390fd5b8073ffffffffffffffffffffffffffffffffffffffff163373ffffffffffffffffffffffffffffffffffffffff161461082f576040517f08c379a000000000000000000000000000000000000000000000000000000000815260040161082690611e1f565b60405180910390fd5b84610e1060016000838152602001908152602001600020600101540142111561088d576040517f08c379a000000000000000000000000000000000000000000000000000000000815260040161088490611f3f565b60405180910390fd5b876001600088815260200190815260200160002060030181905550600180600088815260200190815260200160002060020160006101000a81548160ff021916908360048111156108da57fe5b0217905550426001600088815260200190815260200160002060010181905550857f62eb13606cfcd72bc7ed386e47e566f10e24a4fce72760cdac081d1d68dda4388960405161092a9190611d92565b60405180910390a25050505050505050565b606481565b8181600160008086815260200190815260200160002060000160009054906101000a900473ffffffffffffffffffffffffffffffffffffffff16826001600085815260200190815260200160002060000160009054906101000a900473ffffffffffffffffffffffffffffffffffffffff16856040516020016109c5929190611ccc565b6040516020818303038152906040528051906020012014610a1b576040517f08c379a0000000000000000000000000000000000000000000000000000000008152600401610a1290611dff565b60405180910390fd5b816004811115610a2757fe5b6001600085815260200190815260200160002060020160009054906101000a900460ff166004811115610a5657fe5b14610a96576040517f08c379a0000000000000000000000000000000000000000000000000000000008152600401610a8d90611e7f565b60405180910390fd5b8073ffffffffffffffffffffffffffffffffffffffff163373ffffffffffffffffffffffffffffffffffffffff1614610b04576040517f08c379a0000000000000000000000000000000000000000000000000000000008152600401610afb90611e1f565b60405180910390fd5b42610e1060016000888152602001908152602001600020600101540110610b60576040517f08c379a0000000000000000000000000000000000000000000000000000000008152600401610b5790611e9f565b60405180910390fd5b60026001600087815260200190815260200160002060020160006101000a81548160ff02191690836004811115610b9357fe5b02179055503373ffffffffffffffffffffffffffffffffffffffff166108fc60646000808a815260200190815260200160002060030154019081150290604051600060405180830381858888f19350505050158015610bf6573d6000803e3d6000fd5b50505050505050565b3373ffffffffffffffffffffffffffffffffffffffff1660008084815260200190815260200160002060000160009054906101000a900473ffffffffffffffffffffffffffffffffffffffff1673ffffffffffffffffffffffffffffffffffffffff1614610ca2576040517f08c379a0000000000000000000000000000000000000000000000000000000008152600401610c9990611e5f565b60405180910390fd5b6000801b6000808481526020019081526020016000206004015414610cfc576040517f08c379a0000000000000000000000000000000000000000000000000000000008152600401610cf390611f7f565b60405180910390fd5b8060008084815260200190815260200160002060040181905550817ff5134cc1cd5f71f961deac76361825ef7e31a91c328fb58b4986039b20f1bd0082604051610d469190611d92565b60405180910390a25050565b600073ffffffffffffffffffffffffffffffffffffffff1660008086815260200190815260200160002060000160009054906101000a900473ffffffffffffffffffffffffffffffffffffffff1673ffffffffffffffffffffffffffffffffffffffff1614610df6576040517f08c379a0000000000000000000000000000000000000000000000000000000008152600401610ded90611eff565b60405180910390fd5b6040518060a001604052803373ffffffffffffffffffffffffffffffffffffffff1681526020018481526020018281526020018381526020016000801b81525060008086815260200190815260200160002060008201518160000160006101000a81548173ffffffffffffffffffffffffffffffffffffffff021916908373ffffffffffffffffffffffffffffffffffffffff16021790555060208201518160010155604082015181600201556060820151816003015560808201518160040155905050837f8e3b76238df236816578eb0bb931ab096b4688aabbbff9c932ef58afc0796e544442604051602001610eef929190611d13565b6040516020818303038152906040528051906020012060001c604051610f159190611f9f565b60405180910390a250505050565b60006020528060005260406000206000915090508060000160009054906101000a900473ffffffffffffffffffffffffffffffffffffffff16908060010154908060020154908060030154908060040154905085565b600073ffffffffffffffffffffffffffffffffffffffff1660008085815260200190815260200160002060000160009054906101000a900473ffffffffffffffffffffffffffffffffffffffff1673ffffffffffffffffffffffffffffffffffffffff16141561101e576040517f08c379a000000000000000000000000000000000000000000000000000000000815260040161101590611ebf565b60405180910390fd5b6000801b600080858152602001908152602001600020600401541415611079576040517f08c379a000000000000000000000000000000000000000000000000000000000815260040161107090611e3f565b60405180910390fd5b6000808481526020019081526020016000206003015434146110d0576040517f08c379a00000000000000000000000000000000000000000000000000000000081526004016110c790611edf565b60405180910390fd5b600033846040516020016110e5929190611ca0565b6040516020818303038152906040528051906020012090506040518060a001604052803373ffffffffffffffffffffffffffffffffffffffff1681526020014281526020016000600481111561113757fe5b81526020016000801b8152602001848152506001600083815260200190815260200160002060008201518160000160006101000a81548173ffffffffffffffffffffffffffffffffffffffff021916908373ffffffffffffffffffffffffffffffffffffffff1602179055506020820151816001015560408201518160020160006101000a81548160ff021916908360048111156111d157fe5b0217905550606082015181600301556080820151816004015590505080847f7753d16ee8010f36f0f58115989c1010438224093244666e6b047250265022db8585604051611220929190611dad565b60405180910390a350505050565b818160006001600085815260200190815260200160002060000160009054906101000a900473ffffffffffffffffffffffffffffffffffffffff16826001600085815260200190815260200160002060000160009054906101000a900473ffffffffffffffffffffffffffffffffffffffff16856040516020016112b3929190611ccc565b6040516020818303038152906040528051906020012014611309576040517f08c379a000000000000000000000000000000000000000000000000000000000815260040161130090611dff565b60405180910390fd5b81600481111561131557fe5b6001600085815260200190815260200160002060020160009054906101000a900460ff16600481111561134457fe5b14611384576040517f08c379a000000000000000000000000000000000000000000000000000000000815260040161137b90611e7f565b60405180910390fd5b8073ffffffffffffffffffffffffffffffffffffffff163373ffffffffffffffffffffffffffffffffffffffff16146113f2576040517f08c379a00000000000000000000000000000000000000000000000000000000081526004016113e990611e1f565b60405180910390fd5b42610e106001600088815260200190815260200160002060010154011061144e576040517f08c379a000000000000000000000000000000000000000000000000000000000815260040161144590611f5f565b60405180910390fd5b60046001600087815260200190815260200160002060020160006101000a81548160ff0219169083600481111561148157fe5b02179055503373ffffffffffffffffffffffffffffffffffffffff166108fc600080898152602001908152602001600020600301549081150290604051600060405180830381858888f193505050501580156114e1573d6000803e3d6000fd5b50505050505050565b610e1081565b600082601f83011261150157600080fd5b813561151461150f82611fe7565b611fba565b9150818183526020840193506020810190508385602084028201111561153957600080fd5b60005b83811015611569578161154f8882611573565b84526020840193506020830192505060018101905061153c565b5050505092915050565b600081359050611582816120cf565b92915050565b60006060828403121561159a57600080fd5b6115a46060611fba565b905060006115b484828501611600565b60008301525060206115c884828501611573565b602083015250604082013567ffffffffffffffff8111156115e857600080fd5b6115f4848285016114f0565b60408301525092915050565b60008135905061160f816120e6565b92915050565b60006020828403121561162757600080fd5b600061163584828501611573565b91505092915050565b6000806040838503121561165157600080fd5b600061165f85828601611573565b925050602061167085828601611573565b9150509250929050565b60008060006060848603121561168f57600080fd5b600061169d86828701611573565b93505060206116ae86828701611573565b92505060406116bf86828701611573565b9150509250925092565b600080600080608085870312156116df57600080fd5b60006116ed87828801611573565b94505060206116fe87828801611573565b935050604061170f87828801611573565b925050606085013567ffffffffffffffff81111561172c57600080fd5b61173887828801611588565b91505092959194509250565b6000806000806080858703121561175a57600080fd5b600061176887828801611573565b945050602061177987828801611600565b935050604061178a87828801611600565b925050606061179b87828801611573565b91505092959194509250565b6117b86117b382612032565b61208a565b82525050565b6117c781612020565b82525050565b6117de6117d982612020565b612078565b82525050565b6117ed81612044565b82525050565b6118046117ff82612044565b61209c565b82525050565b600061181760118361200f565b91507f57726f6e672070757263686173652049440000000000000000000000000000006000830152602082019050919050565b600061185760158361200f565b91507f57726f6e672066756e6374696f6e2063616c6c657200000000000000000000006000830152602082019050919050565b6000611897602f8361200f565b91507f54686520636f6e736964657265642066696c6520686173206e6f74206465736360008301527f72697074696f6e207365742079657400000000000000000000000000000000006020830152604082019050919050565b60006118fd60278361200f565b91507f4f6e6c79207468652073656c6c65722063616e2073657420746865206465736360008301527f72697074696f6e000000000000000000000000000000000000000000000000006020830152604082019050919050565b6000611963601b8361200f565b91507f507572636861736520696e207468652077726f6e6720737461746500000000006000830152602082019050919050565b60006119a360278361200f565b91507f54686520627579657220686173207374696c6c2074696d6520746f207368617260008301527f65206120504f4d000000000000000000000000000000000000000000000000006020830152604082019050919050565b6000611a0960388361200f565b91507f4e6f2066696c652077697468207265717565737465642068617368206973207060008301527f726573656e7420696e73696465207468652073797374656d00000000000000006020830152604082019050919050565b6000611a6f60358361200f565b91507f5468652073656e7420616d6f756e74206f66206d6f6e6579206973206c6f776560008301527f72207468616e207468652066696c6520707269636500000000000000000000006020830152604082019050919050565b6000611ad560238361200f565b91507f5468652066696c652068617320616c7265616479206265656e207075626c697360008301527f68656400000000000000000000000000000000000000000000000000000000006020830152604082019050919050565b6000611b3b60188361200f565b91507f50726f7669646564207365637265742069732077726f6e6700000000000000006000830152602082019050919050565b6000611b7b60138361200f565b91507f4d61782074696d656f75742072656163686564000000000000000000000000006000830152602082019050919050565b6000611bbb60348361200f565b91507f5468652073656c6c657220686173207374696c6c2074696d6520746f2073686160008301527f72652074686520656e63727970746564206b65790000000000000000000000006020830152604082019050919050565b6000611c2160248361200f565b91507f546865206465736372697074696f6e2068617320616c7265616479206265656e60008301527f20736574000000000000000000000000000000000000000000000000000000006020830152604082019050919050565b611c838161206e565b82525050565b611c9a611c958261206e565b6120b8565b82525050565b6000611cac82856117a7565b601482019150611cbc82846117f3565b6020820191508190509392505050565b6000611cd882856117cd565b601482019150611ce882846117f3565b6020820191508190509392505050565b6000611d0482846117f3565b60208201915081905092915050565b6000611d1f8285611c89565b602082019150611d2f8284611c89565b6020820191508190509392505050565b600060a082019050611d5460008301886117be565b611d616020830187611c7a565b611d6e60408301866117e4565b611d7b6060830185611c7a565b611d8860808301846117e4565b9695505050505050565b6000602082019050611da760008301846117e4565b92915050565b6000604082019050611dc260008301856117e4565b611dcf60208301846117e4565b9392505050565b6000604082019050611deb60008301856117e4565b611df86020830184611c7a565b9392505050565b60006020820190508181036000830152611e188161180a565b9050919050565b60006020820190508181036000830152611e388161184a565b9050919050565b60006020820190508181036000830152611e588161188a565b9050919050565b60006020820190508181036000830152611e78816118f0565b9050919050565b60006020820190508181036000830152611e9881611956565b9050919050565b60006020820190508181036000830152611eb881611996565b9050919050565b60006020820190508181036000830152611ed8816119fc565b9050919050565b60006020820190508181036000830152611ef881611a62565b9050919050565b60006020820190508181036000830152611f1881611ac8565b9050919050565b60006020820190508181036000830152611f3881611b2e565b9050919050565b60006020820190508181036000830152611f5881611b6e565b9050919050565b60006020820190508181036000830152611f7881611bae565b9050919050565b60006020820190508181036000830152611f9881611c14565b9050919050565b6000602082019050611fb46000830184611c7a565b92915050565b6000604051905081810181811067ffffffffffffffff82111715611fdd57600080fd5b8060405250919050565b600067ffffffffffffffff821115611ffe57600080fd5b602082029050602081019050919050565b600082825260208201905092915050565b600061202b8261204e565b9050919050565b600061203d8261204e565b9050919050565b6000819050919050565b600073ffffffffffffffffffffffffffffffffffffffff82169050919050565b6000819050919050565b6000612083826120a6565b9050919050565b6000612095826120a6565b9050919050565b6000819050919050565b60006120b1826120c2565b9050919050565b6000819050919050565b60008160601b9050919050565b6120d881612044565b81146120e357600080fd5b50565b6120ef8161206e565b81146120fa57600080fd5b5056fea26469706673582212200043fe26066218ecb5ee5efc1188f6fff491b10936f727bc10796d44243663ea64736f6c63430007000033",
  "source": "// SPDX-License-Identifier: GPL-3.0\r\npragma solidity >=0.7.0 <0.9.0;\r\npragma experimental ABIEncoderV2;\r\n\r\ncontract ConfidentialFairExchange {\r\n   \r\n    uint constant public MAX_INTERVAL = 3600; // 1 h timemax inteval between operations \r\n    uint constant public COLLATERAL = 100 wei; // TODO: substitute with actual depth-depending cost \r\n\r\n    /******** INIT PHASE *******/\r\n    event FileRandomness(bytes32 indexed fileHash, uint randomness); \r\n    event FilePublished(bytes32 indexed fileHash, bytes32 description); \r\n\r\n    // struct containing info about the file to sell \r\n    struct FileInfo {\r\n        address seller; \r\n        uint depth;  // description depth   \r\n        bytes32 sellerPublicKey; \r\n        uint price; \r\n        bytes32 description; \r\n    }\r\n\r\n    // mapping associating to each hash the corrisponding FileInfo struct \r\n    mapping(bytes32 => FileInfo) public fileInfos; \r\n\r\n    function publishFile(bytes32 _fileHash, uint _depth, uint _price, bytes32 _sellerPublicKey) public {\r\n        require(fileInfos[_fileHash].seller == address(0), \"The file has already been published\"); \r\n\r\n        fileInfos[_fileHash] = FileInfo(msg.sender, _depth, _sellerPublicKey, _price, 0); \r\n        emit FileRandomness(_fileHash, uint(keccak256(abi.encodePacked(block.difficulty, block.timestamp))));\r\n    }\r\n\r\n    function publishDescription(bytes32 _fileHash, bytes32 _description) public {\r\n        require(fileInfos[_fileHash].seller == msg.sender, \"Only the seller can set the description\"); \r\n        require(fileInfos[_fileHash].description == 0, \"The description has already been set\"); \r\n\r\n        fileInfos[_fileHash].description = _description; \r\n        emit FilePublished(_fileHash, _description);\r\n    }\r\n\r\n    /**** BUYING PHASE *****/\r\n    event PurchaseRequested(bytes32 indexed fileHash, bytes32 indexed purchaseID, bytes32 secretHash, bytes32 encryptedSecret); \r\n    event EncryptedKeyPublished(bytes32 indexed purchaseID, bytes32 encryptedKey); \r\n\r\n    enum State { Requested, EncryptedKeyShared, Completed, Invalid, Timeout} \r\n    struct Purchase { \r\n        address buyer; \r\n        uint lastOperationTime; \r\n        State state; \r\n        bytes32 encryptedKey;\r\n        bytes32 secretHash;  \r\n    }\r\n\r\n    mapping(bytes32 => Purchase) purchases; \r\n    function buy(bytes32 _fileHash, bytes32 _secretHash, bytes32 _encryptedSecret) \r\n        public payable {\r\n        \r\n        require(fileInfos[_fileHash].seller != address(0), \"No file with requested hash is present inside the system\"); \r\n        require(fileInfos[_fileHash].description != 0, \"The considered file has not description set yet\");  \r\n        require(msg.value == fileInfos[_fileHash].price, \"The sent amount of money is lower than the file price\"); \r\n\r\n        bytes32 purchaseID = bytes32(keccak256(abi.encodePacked(msg.sender, _fileHash)));        \r\n        purchases[purchaseID] = Purchase(msg.sender, block.timestamp, State.Requested, 0, _secretHash);  \r\n\r\n        emit PurchaseRequested(_fileHash, purchaseID, _secretHash, _encryptedSecret);\r\n    }\r\n\r\n    /* buyer call buy -> seller check H(D(_encryptedSecret)) == _secretHash  \r\n        -> if false: wait MAX_INTERVAL and call withdraw \r\n        -> if true: call publishKey (with collateral)\r\n    */ \r\n    function publishKey(bytes32 _encryptedKey, bytes32 _fileHash, bytes32 _purchaseID) \r\n        Only(_fileHash, _purchaseID, State.Requested, fileInfos[_fileHash].seller)\r\n        InTime(_purchaseID) \r\n        public payable {\r\n        \r\n        purchases[_purchaseID].encryptedKey = _encryptedKey; \r\n        purchases[_purchaseID].state = State.EncryptedKeyShared; \r\n        purchases[_purchaseID].lastOperationTime = block.timestamp; \r\n        emit EncryptedKeyPublished(_purchaseID, _encryptedKey);\r\n    }\r\n\r\n    // Complain about the goods by proving that \r\n    //  i. a committed subkey is different from the subkey derived from the master key; and\r\n    // ii. and this committed subkey is part of the description.\r\n    struct POM {\r\n        uint _committed_ri; \r\n        bytes32 _committedSubKey; \r\n        bytes32[] _merkleTreePath; \r\n    }\r\n    function raiseObjection(bytes32 _fileHash, bytes32 _purchaseID, bytes32 _secret,\r\n        POM memory pom)\r\n        Only(_fileHash, _purchaseID, State.EncryptedKeyShared, purchases[_purchaseID].buyer)\r\n        InTime(_purchaseID)\r\n        public\r\n        payable\r\n    {\r\n        require(keccak256(abi.encodePacked(_secret)) == purchases[_purchaseID].secretHash, \"Provided secret is wrong\"); \r\n        bytes32 key = purchases[_purchaseID].encryptedKey ^ _secret; \r\n        \r\n        bytes32 computedSubkey = keccak256(abi.encode(key, pom._committed_ri));\r\n        // Check if the subkey supplied by buyer is different from the subkey derived from masterKey.\r\n        if (computedSubkey != pom._committedSubKey) {\r\n            bytes32 committedNode = keccak256(abi.encode(pom._committedSubKey, pom._committed_ri));\r\n            \r\n            // When the loop exits, committedNode will hold the root of Merkle Tree.\r\n            for (uint i = 0; i < fileInfos[_fileHash].depth; i++)\r\n                committedNode = keccak256(abi.encode(committedNode, pom._merkleTreePath[i]));\r\n            \r\n            // Check if the root equals description.\r\n            if (committedNode == fileInfos[_fileHash].description) {\r\n                // If so, the buyer is right and gets the deposit + collateral back.\r\n                purchases[_purchaseID].state = State.Invalid; \r\n                payable(msg.sender).transfer(COLLATERAL + fileInfos[_fileHash].price);\r\n            }\r\n        }\r\n    }\r\n\r\n    // Refund to buyer if seller does not publish master key in time.   \r\n    function refundToBuyer(bytes32 _fileHash, bytes32 _purchaseID)\r\n        Only(_fileHash, _purchaseID, State.Requested, purchases[_purchaseID].buyer)\r\n        public payable {\r\n        \r\n        require(purchases[_purchaseID].lastOperationTime + MAX_INTERVAL < block.timestamp, \"The seller has still time to share the encrypted key\"); \r\n        purchases[_purchaseID].state = State.Timeout; \r\n        payable(msg.sender).transfer(fileInfos[_fileHash].price);\r\n    }\r\n\r\n    function withdraw(bytes32 _fileHash, bytes32 _purchaseID) \r\n        Only(_fileHash, _purchaseID, State.EncryptedKeyShared, fileInfos[_fileHash].seller)\r\n        public payable \r\n    {\r\n        require(purchases[_purchaseID].lastOperationTime + MAX_INTERVAL < block.timestamp, \"The buyer has still time to share a POM\"); \r\n        purchases[_purchaseID].state = State.Completed; \r\n        payable(msg.sender).transfer(fileInfos[_fileHash].price + COLLATERAL);\r\n    }\r\n     \r\n    modifier InTime(bytes32 _purchaseID) {\r\n        require(block.timestamp <= purchases[_purchaseID].lastOperationTime + MAX_INTERVAL, \"Max timeout reached\"); \r\n        _; \r\n    }\r\n\r\n    modifier Only(bytes32 _fileHash, bytes32 _purchaseID, State _state, address caller) {\r\n        require(bytes32(keccak256(abi.encodePacked(purchases[_purchaseID].buyer, _fileHash))) == _purchaseID, \"Wrong purchase ID\"); \r\n        require(purchases[_purchaseID].state == _state, \"Purchase in the wrong state\"); \r\n        require(msg.sender == caller, \"Wrong function caller\"); \r\n        _;\r\n    }\r\n}",
  "sourcePath": "C:\\Users\\Egon\\Desktop\\Thesis\\confidential-fair-exchange\\contracts\\conf-fair-exchange.sol",
  "compiler": {
    "name": "solc",
    "version": "0.7.0+commit.9e61f92b.Emscripten.clang",
    "optimizer": false,
    "runs": 200
  },
  "schemaVersion": "2.3.5",
  "updatedAt": "2022-07-16T23:42:04.359Z"
}