{
  "contractName": "ConfidentialFairExchange",
  "abi": [
    {
      "anonymous": false,
      "inputs": [
        {
          "indexed": true,
          "internalType": "bytes32",
          "name": "purchaseID",
          "type": "bytes32"
        },
        {
          "indexed": false,
          "internalType": "bytes32",
          "name": "encryptedKey",
          "type": "bytes32"
        }
      ],
      "name": "EncryptedKeyPublished",
      "type": "event"
    },
    {
      "anonymous": false,
      "inputs": [
        {
          "indexed": true,
          "internalType": "bytes32",
          "name": "fileHash",
          "type": "bytes32"
        },
        {
          "indexed": false,
          "internalType": "bytes32",
          "name": "description",
          "type": "bytes32"
        }
      ],
      "name": "FilePublished",
      "type": "event"
    },
    {
      "anonymous": false,
      "inputs": [
        {
          "indexed": true,
          "internalType": "bytes32",
          "name": "fileHash",
          "type": "bytes32"
        },
        {
          "indexed": false,
          "internalType": "uint256",
          "name": "randomness",
          "type": "uint256"
        }
      ],
      "name": "FileRandomness",
      "type": "event"
    },
    {
      "anonymous": false,
      "inputs": [
        {
          "indexed": true,
          "internalType": "bytes32",
          "name": "fileHash",
          "type": "bytes32"
        },
        {
          "indexed": true,
          "internalType": "bytes32",
          "name": "purchaseID",
          "type": "bytes32"
        },
        {
          "indexed": false,
          "internalType": "bytes32",
          "name": "secretHash",
          "type": "bytes32"
        },
        {
          "indexed": false,
          "internalType": "bytes",
          "name": "encryptedSecret",
          "type": "bytes"
        }
      ],
      "name": "PurchaseRequested",
      "type": "event"
    },
    {
      "inputs": [],
      "name": "COLLATERAL",
      "outputs": [
        {
          "internalType": "uint256",
          "name": "",
          "type": "uint256"
        }
      ],
      "stateMutability": "view",
      "type": "function"
    },
    {
      "inputs": [],
      "name": "MAX_INTERVAL",
      "outputs": [
        {
          "internalType": "uint256",
          "name": "",
          "type": "uint256"
        }
      ],
      "stateMutability": "view",
      "type": "function"
    },
    {
      "inputs": [
        {
          "internalType": "bytes32",
          "name": "",
          "type": "bytes32"
        }
      ],
      "name": "fileInfos",
      "outputs": [
        {
          "internalType": "address",
          "name": "seller",
          "type": "address"
        },
        {
          "internalType": "uint256",
          "name": "depth",
          "type": "uint256"
        },
        {
          "internalType": "uint256",
          "name": "price",
          "type": "uint256"
        },
        {
          "internalType": "bytes32",
          "name": "description",
          "type": "bytes32"
        }
      ],
      "stateMutability": "view",
      "type": "function"
    },
    {
      "inputs": [
        {
          "internalType": "bytes32",
          "name": "_fileHash",
          "type": "bytes32"
        },
        {
          "internalType": "uint256",
          "name": "_depth",
          "type": "uint256"
        },
        {
          "internalType": "uint256",
          "name": "_price",
          "type": "uint256"
        }
      ],
      "name": "publishFile",
      "outputs": [],
      "stateMutability": "nonpayable",
      "type": "function"
    },
    {
      "inputs": [
        {
          "internalType": "bytes32",
          "name": "_fileHash",
          "type": "bytes32"
        },
        {
          "internalType": "bytes32",
          "name": "_description",
          "type": "bytes32"
        }
      ],
      "name": "publishDescription",
      "outputs": [],
      "stateMutability": "nonpayable",
      "type": "function"
    },
    {
      "inputs": [
        {
          "internalType": "bytes32",
          "name": "_fileHash",
          "type": "bytes32"
        },
        {
          "internalType": "bytes32",
          "name": "_secretHash",
          "type": "bytes32"
        },
        {
          "internalType": "bytes",
          "name": "_encryptedSecret",
          "type": "bytes"
        }
      ],
      "name": "buy",
      "outputs": [],
      "stateMutability": "payable",
      "type": "function"
    },
    {
      "inputs": [
        {
          "internalType": "bytes32",
          "name": "_encryptedKey",
          "type": "bytes32"
        },
        {
          "internalType": "bytes32",
          "name": "_fileHash",
          "type": "bytes32"
        },
        {
          "internalType": "bytes32",
          "name": "_purchaseID",
          "type": "bytes32"
        }
      ],
      "name": "publishKey",
      "outputs": [],
      "stateMutability": "payable",
      "type": "function"
    },
    {
      "inputs": [
        {
          "internalType": "bytes32",
          "name": "_fileHash",
          "type": "bytes32"
        },
        {
          "internalType": "bytes32",
          "name": "_purchaseID",
          "type": "bytes32"
        },
        {
          "internalType": "bytes32",
          "name": "_secret",
          "type": "bytes32"
        },
        {
          "components": [
            {
              "internalType": "uint256",
              "name": "_committed_ri",
              "type": "uint256"
            },
            {
              "internalType": "bytes32",
              "name": "_committedSubKey",
              "type": "bytes32"
            },
            {
              "internalType": "bytes32[]",
              "name": "_merkleTreePath",
              "type": "bytes32[]"
            }
          ],
          "internalType": "struct ConfidentialFairExchange.POM",
          "name": "pom",
          "type": "tuple"
        }
      ],
      "name": "raiseObjection",
      "outputs": [],
      "stateMutability": "payable",
      "type": "function"
    },
    {
      "inputs": [
        {
          "internalType": "bytes32",
          "name": "_fileHash",
          "type": "bytes32"
        },
        {
          "internalType": "bytes32",
          "name": "_purchaseID",
          "type": "bytes32"
        }
      ],
      "name": "refundToBuyer",
      "outputs": [],
      "stateMutability": "payable",
      "type": "function"
    },
    {
      "inputs": [
        {
          "internalType": "bytes32",
          "name": "_fileHash",
          "type": "bytes32"
        },
        {
          "internalType": "bytes32",
          "name": "_purchaseID",
          "type": "bytes32"
        }
      ],
      "name": "withdraw",
      "outputs": [],
      "stateMutability": "payable",
      "type": "function"
    }
  ],
  "bytecode": "0x608060405234801561001057600080fd5b50612248806100206000396000f3fe6080604052600436106100915760003560e01c80639f82956a116100595780639f82956a1461013e578063d961e0d814610167578063f704d82d146101a7578063fb6f358f146101c3578063fede6114146101df57610091565b806312d9373114610096578063165bea5e146100b257806324bbab8b146100ce57806363615149146100f957806381c34e9a14610115575b600080fd5b6100b060048036038101906100ab91906116fe565b61020a565b005b6100cc60048036038101906100c791906116af565b61066b565b005b3480156100da57600080fd5b506100e361093b565b6040516100f09190612083565b60405180910390f35b610113600480360381019061010e9190611673565b610940565b005b34801561012157600080fd5b5061013c60048036038101906101379190611673565b610bfe565b005b34801561014a57600080fd5b50610165600480360381019061016091906117e5565b610d51565b005b34801561017357600080fd5b5061018e6004803603810190610189919061164a565b610f11565b60405161019e9493929190611e51565b60405180910390f35b6101c160048036038101906101bc9190611673565b610f61565b005b6101dd60048036038101906101d89190611779565b61121d565b005b3480156101eb57600080fd5b506101f46114d5565b6040516102019190612083565b60405180910390f35b8383600180600087815260200190815260200160002060000160009054906101000a900473ffffffffffffffffffffffffffffffffffffffff16826001600085815260200190815260200160002060000160009054906101000a900473ffffffffffffffffffffffffffffffffffffffff168560405160200161028e929190611d86565b60405160208183030381529060405280519060200120146102e4576040517f08c379a00000000000000000000000000000000000000000000000000000000081526004016102db90611ee3565b60405180910390fd5b8160048111156102f057fe5b6001600085815260200190815260200160002060020160009054906101000a900460ff16600481111561031f57fe5b1461035f576040517f08c379a000000000000000000000000000000000000000000000000000000000815260040161035690611f63565b60405180910390fd5b8073ffffffffffffffffffffffffffffffffffffffff163373ffffffffffffffffffffffffffffffffffffffff16146103cd576040517f08c379a00000000000000000000000000000000000000000000000000000000081526004016103c490611f03565b60405180910390fd5b86610e1060016000838152602001908152602001600020600101540142111561042b576040517f08c379a000000000000000000000000000000000000000000000000000000000815260040161042290612023565b60405180910390fd5b6001600089815260200190815260200160002060040154876040516020016104539190611db2565b60405160208183030381529060405280519060200120146104a9576040517f08c379a00000000000000000000000000000000000000000000000000000000081526004016104a090612003565b60405180910390fd5b600087600160008b81526020019081526020016000206003015418905060008188600001516040516020016104df929190611df9565b6040516020818303038152906040528051906020012090508760200151811461065e5760008860200151896000015160405160200161051f929190611df9565b60405160208183030381529060405280519060200120905060005b6000808e8152602001908152602001600020600101548110156105a657818a60400151828151811061056857fe5b6020026020010151604051602001610581929190611dcd565b604051602081830303815290604052805190602001209150808060010191505061053a565b506000808d81526020019081526020016000206003015481141561065c576003600160008d815260200190815260200160002060020160006101000a81548160ff021916908360048111156105f757fe5b02179055503373ffffffffffffffffffffffffffffffffffffffff166108fc6000808f8152602001908152602001600020600201546064019081150290604051600060405180830381858888f1935050505015801561065a573d6000803e3d6000fd5b505b505b5050505050505050505050565b8181600080600086815260200190815260200160002060000160009054906101000a900473ffffffffffffffffffffffffffffffffffffffff16826001600085815260200190815260200160002060000160009054906101000a900473ffffffffffffffffffffffffffffffffffffffff16856040516020016106ef929190611d86565b6040516020818303038152906040528051906020012014610745576040517f08c379a000000000000000000000000000000000000000000000000000000000815260040161073c90611ee3565b60405180910390fd5b81600481111561075157fe5b6001600085815260200190815260200160002060020160009054906101000a900460ff16600481111561078057fe5b146107c0576040517f08c379a00000000000000000000000000000000000000000000000000000000081526004016107b790611f63565b60405180910390fd5b8073ffffffffffffffffffffffffffffffffffffffff163373ffffffffffffffffffffffffffffffffffffffff161461082e576040517f08c379a000000000000000000000000000000000000000000000000000000000815260040161082590611f03565b60405180910390fd5b84610e1060016000838152602001908152602001600020600101540142111561088c576040517f08c379a000000000000000000000000000000000000000000000000000000000815260040161088390612023565b60405180910390fd5b876001600088815260200190815260200160002060030181905550600180600088815260200190815260200160002060020160006101000a81548160ff021916908360048111156108d957fe5b0217905550426001600088815260200190815260200160002060010181905550857f62eb13606cfcd72bc7ed386e47e566f10e24a4fce72760cdac081d1d68dda438896040516109299190611e96565b60405180910390a25050505050505050565b606481565b8181600160008086815260200190815260200160002060000160009054906101000a900473ffffffffffffffffffffffffffffffffffffffff16826001600085815260200190815260200160002060000160009054906101000a900473ffffffffffffffffffffffffffffffffffffffff16856040516020016109c4929190611d86565b6040516020818303038152906040528051906020012014610a1a576040517f08c379a0000000000000000000000000000000000000000000000000000000008152600401610a1190611ee3565b60405180910390fd5b816004811115610a2657fe5b6001600085815260200190815260200160002060020160009054906101000a900460ff166004811115610a5557fe5b14610a95576040517f08c379a0000000000000000000000000000000000000000000000000000000008152600401610a8c90611f63565b60405180910390fd5b8073ffffffffffffffffffffffffffffffffffffffff163373ffffffffffffffffffffffffffffffffffffffff1614610b03576040517f08c379a0000000000000000000000000000000000000000000000000000000008152600401610afa90611f03565b60405180910390fd5b42610e1060016000888152602001908152602001600020600101540110610b5f576040517f08c379a0000000000000000000000000000000000000000000000000000000008152600401610b5690611f83565b60405180910390fd5b60026001600087815260200190815260200160002060020160006101000a81548160ff02191690836004811115610b9257fe5b02179055503373ffffffffffffffffffffffffffffffffffffffff166108fc60646000808a815260200190815260200160002060020154019081150290604051600060405180830381858888f19350505050158015610bf5573d6000803e3d6000fd5b50505050505050565b3373ffffffffffffffffffffffffffffffffffffffff1660008084815260200190815260200160002060000160009054906101000a900473ffffffffffffffffffffffffffffffffffffffff1673ffffffffffffffffffffffffffffffffffffffff1614610ca1576040517f08c379a0000000000000000000000000000000000000000000000000000000008152600401610c9890611f43565b60405180910390fd5b6000801b6000808481526020019081526020016000206003015414610cfb576040517f08c379a0000000000000000000000000000000000000000000000000000000008152600401610cf290612063565b60405180910390fd5b8060008084815260200190815260200160002060030181905550817ff5134cc1cd5f71f961deac76361825ef7e31a91c328fb58b4986039b20f1bd0082604051610d459190611e96565b60405180910390a25050565b600073ffffffffffffffffffffffffffffffffffffffff1660008085815260200190815260200160002060000160009054906101000a900473ffffffffffffffffffffffffffffffffffffffff1673ffffffffffffffffffffffffffffffffffffffff1614610df5576040517f08c379a0000000000000000000000000000000000000000000000000000000008152600401610dec90611fe3565b60405180910390fd5b60405180608001604052803373ffffffffffffffffffffffffffffffffffffffff1681526020018381526020018281526020016000801b81525060008085815260200190815260200160002060008201518160000160006101000a81548173ffffffffffffffffffffffffffffffffffffffff021916908373ffffffffffffffffffffffffffffffffffffffff160217905550602082015181600101556040820151816002015560608201518160030155905050827f8e3b76238df236816578eb0bb931ab096b4688aabbbff9c932ef58afc0796e544442604051602001610ede929190611e25565b6040516020818303038152906040528051906020012060001c604051610f049190612083565b60405180910390a2505050565b60006020528060005260406000206000915090508060000160009054906101000a900473ffffffffffffffffffffffffffffffffffffffff16908060010154908060020154908060030154905084565b818160006001600085815260200190815260200160002060000160009054906101000a900473ffffffffffffffffffffffffffffffffffffffff16826001600085815260200190815260200160002060000160009054906101000a900473ffffffffffffffffffffffffffffffffffffffff1685604051602001610fe6929190611d86565b604051602081830303815290604052805190602001201461103c576040517f08c379a000000000000000000000000000000000000000000000000000000000815260040161103390611ee3565b60405180910390fd5b81600481111561104857fe5b6001600085815260200190815260200160002060020160009054906101000a900460ff16600481111561107757fe5b146110b7576040517f08c379a00000000000000000000000000000000000000000000000000000000081526004016110ae90611f63565b60405180910390fd5b8073ffffffffffffffffffffffffffffffffffffffff163373ffffffffffffffffffffffffffffffffffffffff1614611125576040517f08c379a000000000000000000000000000000000000000000000000000000000815260040161111c90611f03565b60405180910390fd5b42610e1060016000888152602001908152602001600020600101540110611181576040517f08c379a000000000000000000000000000000000000000000000000000000000815260040161117890612043565b60405180910390fd5b60046001600087815260200190815260200160002060020160006101000a81548160ff021916908360048111156111b457fe5b02179055503373ffffffffffffffffffffffffffffffffffffffff166108fc600080898152602001908152602001600020600201549081150290604051600060405180830381858888f19350505050158015611214573d6000803e3d6000fd5b50505050505050565b600073ffffffffffffffffffffffffffffffffffffffff1660008086815260200190815260200160002060000160009054906101000a900473ffffffffffffffffffffffffffffffffffffffff1673ffffffffffffffffffffffffffffffffffffffff1614156112c2576040517f08c379a00000000000000000000000000000000000000000000000000000000081526004016112b990611fa3565b60405180910390fd5b6000801b60008086815260200190815260200160002060030154141561131d576040517f08c379a000000000000000000000000000000000000000000000000000000000815260040161131490611f23565b60405180910390fd5b600080858152602001908152602001600020600201543414611374576040517f08c379a000000000000000000000000000000000000000000000000000000000815260040161136b90611fc3565b60405180910390fd5b60003385604051602001611389929190611d5a565b6040516020818303038152906040528051906020012090506040518060a001604052803373ffffffffffffffffffffffffffffffffffffffff168152602001428152602001600060048111156113db57fe5b81526020016000801b8152602001858152506001600083815260200190815260200160002060008201518160000160006101000a81548173ffffffffffffffffffffffffffffffffffffffff021916908373ffffffffffffffffffffffffffffffffffffffff1602179055506020820151816001015560408201518160020160006101000a81548160ff0219169083600481111561147557fe5b0217905550606082015181600301556080820151816004015590505080857fed54ff2446ce8041198be1e702d273b544e201baf9ec8ed8552ac4cd8495ee548686866040516114c693929190611eb1565b60405180910390a35050505050565b610e1081565b600082601f8301126114ec57600080fd5b81356114ff6114fa826120cb565b61209e565b9150818183526020840193506020810190508385602084028201111561152457600080fd5b60005b83811015611554578161153a888261155e565b845260208401935060208301925050600181019050611527565b5050505092915050565b60008135905061156d816121e4565b92915050565b60008083601f84011261158557600080fd5b8235905067ffffffffffffffff81111561159e57600080fd5b6020830191508360018202830111156115b657600080fd5b9250929050565b6000606082840312156115cf57600080fd5b6115d9606061209e565b905060006115e984828501611635565b60008301525060206115fd8482850161155e565b602083015250604082013567ffffffffffffffff81111561161d57600080fd5b611629848285016114db565b60408301525092915050565b600081359050611644816121fb565b92915050565b60006020828403121561165c57600080fd5b600061166a8482850161155e565b91505092915050565b6000806040838503121561168657600080fd5b60006116948582860161155e565b92505060206116a58582860161155e565b9150509250929050565b6000806000606084860312156116c457600080fd5b60006116d28682870161155e565b93505060206116e38682870161155e565b92505060406116f48682870161155e565b9150509250925092565b6000806000806080858703121561171457600080fd5b60006117228782880161155e565b94505060206117338782880161155e565b93505060406117448782880161155e565b925050606085013567ffffffffffffffff81111561176157600080fd5b61176d878288016115bd565b91505092959194509250565b6000806000806060858703121561178f57600080fd5b600061179d8782880161155e565b94505060206117ae8782880161155e565b935050604085013567ffffffffffffffff8111156117cb57600080fd5b6117d787828801611573565b925092505092959194509250565b6000806000606084860312156117fa57600080fd5b60006118088682870161155e565b935050602061181986828701611635565b925050604061182a86828701611635565b9150509250925092565b61184561184082612127565b61218e565b82525050565b61185481612115565b82525050565b61186b61186682612115565b61217c565b82525050565b61187a81612139565b82525050565b61189161188c82612139565b6121a0565b82525050565b60006118a383856120f3565b93506118b083858461216d565b6118b9836121c6565b840190509392505050565b60006118d1601183612104565b91507f57726f6e672070757263686173652049440000000000000000000000000000006000830152602082019050919050565b6000611911601583612104565b91507f57726f6e672066756e6374696f6e2063616c6c657200000000000000000000006000830152602082019050919050565b6000611951602f83612104565b91507f54686520636f6e736964657265642066696c6520686173206e6f74206465736360008301527f72697074696f6e207365742079657400000000000000000000000000000000006020830152604082019050919050565b60006119b7602783612104565b91507f4f6e6c79207468652073656c6c65722063616e2073657420746865206465736360008301527f72697074696f6e000000000000000000000000000000000000000000000000006020830152604082019050919050565b6000611a1d601b83612104565b91507f507572636861736520696e207468652077726f6e6720737461746500000000006000830152602082019050919050565b6000611a5d602783612104565b91507f54686520627579657220686173207374696c6c2074696d6520746f207368617260008301527f65206120504f4d000000000000000000000000000000000000000000000000006020830152604082019050919050565b6000611ac3603883612104565b91507f4e6f2066696c652077697468207265717565737465642068617368206973207060008301527f726573656e7420696e73696465207468652073797374656d00000000000000006020830152604082019050919050565b6000611b29603583612104565b91507f5468652073656e7420616d6f756e74206f66206d6f6e6579206973206c6f776560008301527f72207468616e207468652066696c6520707269636500000000000000000000006020830152604082019050919050565b6000611b8f602383612104565b91507f5468652066696c652068617320616c7265616479206265656e207075626c697360008301527f68656400000000000000000000000000000000000000000000000000000000006020830152604082019050919050565b6000611bf5601883612104565b91507f50726f7669646564207365637265742069732077726f6e6700000000000000006000830152602082019050919050565b6000611c35601383612104565b91507f4d61782074696d656f75742072656163686564000000000000000000000000006000830152602082019050919050565b6000611c75603483612104565b91507f5468652073656c6c657220686173207374696c6c2074696d6520746f2073686160008301527f72652074686520656e63727970746564206b65790000000000000000000000006020830152604082019050919050565b6000611cdb602483612104565b91507f546865206465736372697074696f6e2068617320616c7265616479206265656e60008301527f20736574000000000000000000000000000000000000000000000000000000006020830152604082019050919050565b611d3d81612163565b82525050565b611d54611d4f82612163565b6121bc565b82525050565b6000611d668285611834565b601482019150611d768284611880565b6020820191508190509392505050565b6000611d92828561185a565b601482019150611da28284611880565b6020820191508190509392505050565b6000611dbe8284611880565b60208201915081905092915050565b6000611dd98285611880565b602082019150611de98284611880565b6020820191508190509392505050565b6000611e058285611880565b602082019150611e158284611d43565b6020820191508190509392505050565b6000611e318285611d43565b602082019150611e418284611d43565b6020820191508190509392505050565b6000608082019050611e66600083018761184b565b611e736020830186611d34565b611e806040830185611d34565b611e8d6060830184611871565b95945050505050565b6000602082019050611eab6000830184611871565b92915050565b6000604082019050611ec66000830186611871565b8181036020830152611ed9818486611897565b9050949350505050565b60006020820190508181036000830152611efc816118c4565b9050919050565b60006020820190508181036000830152611f1c81611904565b9050919050565b60006020820190508181036000830152611f3c81611944565b9050919050565b60006020820190508181036000830152611f5c816119aa565b9050919050565b60006020820190508181036000830152611f7c81611a10565b9050919050565b60006020820190508181036000830152611f9c81611a50565b9050919050565b60006020820190508181036000830152611fbc81611ab6565b9050919050565b60006020820190508181036000830152611fdc81611b1c565b9050919050565b60006020820190508181036000830152611ffc81611b82565b9050919050565b6000602082019050818103600083015261201c81611be8565b9050919050565b6000602082019050818103600083015261203c81611c28565b9050919050565b6000602082019050818103600083015261205c81611c68565b9050919050565b6000602082019050818103600083015261207c81611cce565b9050919050565b60006020820190506120986000830184611d34565b92915050565b6000604051905081810181811067ffffffffffffffff821117156120c157600080fd5b8060405250919050565b600067ffffffffffffffff8211156120e257600080fd5b602082029050602081019050919050565b600082825260208201905092915050565b600082825260208201905092915050565b600061212082612143565b9050919050565b600061213282612143565b9050919050565b6000819050919050565b600073ffffffffffffffffffffffffffffffffffffffff82169050919050565b6000819050919050565b82818337600083830152505050565b6000612187826121aa565b9050919050565b6000612199826121aa565b9050919050565b6000819050919050565b60006121b5826121d7565b9050919050565b6000819050919050565b6000601f19601f8301169050919050565b60008160601b9050919050565b6121ed81612139565b81146121f857600080fd5b50565b61220481612163565b811461220f57600080fd5b5056fea26469706673582212209d50a62903331f81f3ca4fec2362279c8acf7ed4d3d6d0eec3ec32301e66c87a64736f6c63430007000033",
  "source": "// SPDX-License-Identifier: GPL-3.0\r\npragma solidity >=0.7.0 <0.9.0;\r\npragma experimental ABIEncoderV2;\r\n\r\ncontract ConfidentialFairExchange {\r\n   \r\n    uint constant public MAX_INTERVAL = 3600; // 1 h timemax inteval between operations \r\n    uint constant public COLLATERAL = 100 wei; // TODO: substitute with actual depth-depending cost \r\n\r\n    /******** INIT PHASE *******/\r\n    event FileRandomness(bytes32 indexed fileHash, uint randomness); \r\n    event FilePublished(bytes32 indexed fileHash, bytes32 description); \r\n\r\n    // struct containing info about the file to sell \r\n    struct FileInfo {\r\n        address seller; \r\n        uint depth;  // description depth   \r\n        uint price; \r\n        bytes32 description; \r\n    }\r\n\r\n    // mapping associating to each hash the corrisponding FileInfo struct \r\n    mapping(bytes32 => FileInfo) public fileInfos; \r\n\r\n    function publishFile(bytes32 _fileHash, uint _depth, uint _price) public {\r\n        require(fileInfos[_fileHash].seller == address(0), \"The file has already been published\"); \r\n\r\n        fileInfos[_fileHash] = FileInfo(msg.sender, _depth, _price, 0); \r\n        emit FileRandomness(_fileHash, uint(keccak256(abi.encodePacked(block.difficulty, block.timestamp))));\r\n    }\r\n\r\n    function publishDescription(bytes32 _fileHash, bytes32 _description) public {\r\n        require(fileInfos[_fileHash].seller == msg.sender, \"Only the seller can set the description\"); \r\n        require(fileInfos[_fileHash].description == 0, \"The description has already been set\"); \r\n\r\n        fileInfos[_fileHash].description = _description; \r\n        emit FilePublished(_fileHash, _description);\r\n    }\r\n\r\n    /**** BUYING PHASE *****/\r\n    event PurchaseRequested(bytes32 indexed fileHash, bytes32 indexed purchaseID, bytes32 secretHash, bytes encryptedSecret); \r\n    event EncryptedKeyPublished(bytes32 indexed purchaseID, bytes32 encryptedKey); \r\n\r\n    enum State { Requested, EncryptedKeyShared, Completed, Invalid, Timeout} \r\n    struct Purchase { \r\n        address buyer; \r\n        uint lastOperationTime; \r\n        State state; \r\n        bytes32 encryptedKey;\r\n        bytes32 secretHash;  \r\n    }\r\n\r\n    mapping(bytes32 => Purchase) purchases; \r\n    function buy(bytes32 _fileHash, bytes32 _secretHash, bytes calldata _encryptedSecret) \r\n        public payable {\r\n        \r\n        require(fileInfos[_fileHash].seller != address(0), \"No file with requested hash is present inside the system\"); \r\n        require(fileInfos[_fileHash].description != 0, \"The considered file has not description set yet\");  \r\n        require(msg.value == fileInfos[_fileHash].price, \"The sent amount of money is lower than the file price\"); \r\n\r\n        bytes32 purchaseID = bytes32(keccak256(abi.encodePacked(msg.sender, _fileHash)));        \r\n        purchases[purchaseID] = Purchase(msg.sender, block.timestamp, State.Requested, 0, _secretHash);  \r\n\r\n        emit PurchaseRequested(_fileHash, purchaseID, _secretHash, _encryptedSecret);\r\n    }\r\n\r\n    /* buyer call buy -> seller check H(D(_encryptedSecret)) == _secretHash  \r\n        -> if false: wait MAX_INTERVAL and call withdraw \r\n        -> if true: call publishKey (with collateral)\r\n    */ \r\n    function publishKey(bytes32 _encryptedKey, bytes32 _fileHash, bytes32 _purchaseID) \r\n        Only(_fileHash, _purchaseID, State.Requested, fileInfos[_fileHash].seller)\r\n        InTime(_purchaseID) \r\n        public payable {\r\n        \r\n        purchases[_purchaseID].encryptedKey = _encryptedKey; \r\n        purchases[_purchaseID].state = State.EncryptedKeyShared; \r\n        purchases[_purchaseID].lastOperationTime = block.timestamp; \r\n        emit EncryptedKeyPublished(_purchaseID, _encryptedKey);\r\n    }\r\n\r\n    // Complain about the goods by proving that \r\n    //  i. a committed subkey is different from the subkey derived from the master key; and\r\n    // ii. and this committed subkey is part of the description.\r\n    struct POM {\r\n        uint _committed_ri; \r\n        bytes32 _committedSubKey; \r\n        bytes32[] _merkleTreePath; \r\n    }\r\n    function raiseObjection(bytes32 _fileHash, bytes32 _purchaseID, bytes32 _secret,\r\n        POM memory pom)\r\n        Only(_fileHash, _purchaseID, State.EncryptedKeyShared, purchases[_purchaseID].buyer)\r\n        InTime(_purchaseID)\r\n        public\r\n        payable\r\n    {\r\n        require(keccak256(abi.encodePacked(_secret)) == purchases[_purchaseID].secretHash, \"Provided secret is wrong\"); \r\n        bytes32 key = purchases[_purchaseID].encryptedKey ^ _secret; \r\n        \r\n        bytes32 computedSubkey = keccak256(abi.encodePacked(key, pom._committed_ri));\r\n        // Check if the subkey supplied by buyer is different from the subkey derived from masterKey.\r\n        if (computedSubkey != pom._committedSubKey) {\r\n            bytes32 committedNode = keccak256(abi.encodePacked(pom._committedSubKey, pom._committed_ri));\r\n            \r\n            // When the loop exits, committedNode will hold the root of Merkle Tree.\r\n            for (uint i = 0; i < fileInfos[_fileHash].depth; i++)\r\n                committedNode = keccak256(abi.encodePacked(committedNode, pom._merkleTreePath[i]));\r\n            \r\n            // Check if the root equals description.\r\n            if (committedNode == fileInfos[_fileHash].description) {\r\n                // If so, the buyer is right and gets the deposit + collateral back.\r\n                purchases[_purchaseID].state = State.Invalid; \r\n                payable(msg.sender).transfer(COLLATERAL + fileInfos[_fileHash].price);\r\n            }\r\n        }\r\n    }\r\n\r\n    // Refund to buyer if seller does not publish master key in time.   \r\n    function refundToBuyer(bytes32 _fileHash, bytes32 _purchaseID)\r\n        Only(_fileHash, _purchaseID, State.Requested, purchases[_purchaseID].buyer)\r\n        public payable {\r\n        \r\n        require(purchases[_purchaseID].lastOperationTime + MAX_INTERVAL < block.timestamp, \"The seller has still time to share the encrypted key\"); \r\n        purchases[_purchaseID].state = State.Timeout; \r\n        payable(msg.sender).transfer(fileInfos[_fileHash].price);\r\n    }\r\n\r\n    function withdraw(bytes32 _fileHash, bytes32 _purchaseID) \r\n        Only(_fileHash, _purchaseID, State.EncryptedKeyShared, fileInfos[_fileHash].seller)\r\n        public payable \r\n    {\r\n        require(purchases[_purchaseID].lastOperationTime + MAX_INTERVAL < block.timestamp, \"The buyer has still time to share a POM\"); \r\n        purchases[_purchaseID].state = State.Completed; \r\n        payable(msg.sender).transfer(fileInfos[_fileHash].price + COLLATERAL);\r\n    }\r\n     \r\n    modifier InTime(bytes32 _purchaseID) {\r\n        require(block.timestamp <= purchases[_purchaseID].lastOperationTime + MAX_INTERVAL, \"Max timeout reached\"); \r\n        _; \r\n    }\r\n\r\n    modifier Only(bytes32 _fileHash, bytes32 _purchaseID, State _state, address caller) {\r\n        require(bytes32(keccak256(abi.encodePacked(purchases[_purchaseID].buyer, _fileHash))) == _purchaseID, \"Wrong purchase ID\"); \r\n        require(purchases[_purchaseID].state == _state, \"Purchase in the wrong state\"); \r\n        require(msg.sender == caller, \"Wrong function caller\"); \r\n        _;\r\n    }\r\n}",
  "sourcePath": "C:\\Users\\Egon\\Desktop\\Thesis\\confidential-fair-exchange\\contracts\\conf-fair-exchange.sol",
  "compiler": {
    "name": "solc",
    "version": "0.7.0+commit.9e61f92b.Emscripten.clang",
    "optimizer": false,
    "runs": 200
  },
  "schemaVersion": "2.3.5",
  "updatedAt": "2022-07-21T14:35:21.096Z"
}