{
  "contractName": "ConfidentialFairExchange",
  "abi": [
    {
      "anonymous": false,
      "inputs": [
        {
          "indexed": true,
          "internalType": "bytes32",
          "name": "purchaseID",
          "type": "bytes32"
        },
        {
          "indexed": false,
          "internalType": "bytes32",
          "name": "encryptedKey",
          "type": "bytes32"
        }
      ],
      "name": "EncryptedKeyPublished",
      "type": "event"
    },
    {
      "anonymous": false,
      "inputs": [
        {
          "indexed": true,
          "internalType": "bytes32",
          "name": "fileHash",
          "type": "bytes32"
        },
        {
          "indexed": false,
          "internalType": "bytes32",
          "name": "description",
          "type": "bytes32"
        }
      ],
      "name": "FilePublished",
      "type": "event"
    },
    {
      "anonymous": false,
      "inputs": [
        {
          "indexed": true,
          "internalType": "bytes32",
          "name": "fileHash",
          "type": "bytes32"
        },
        {
          "indexed": false,
          "internalType": "uint256",
          "name": "randomness",
          "type": "uint256"
        }
      ],
      "name": "FileRandomness",
      "type": "event"
    },
    {
      "anonymous": false,
      "inputs": [
        {
          "indexed": true,
          "internalType": "bytes32",
          "name": "fileHash",
          "type": "bytes32"
        },
        {
          "indexed": true,
          "internalType": "bytes32",
          "name": "purchaseID",
          "type": "bytes32"
        },
        {
          "indexed": false,
          "internalType": "bytes32",
          "name": "secretHash",
          "type": "bytes32"
        },
        {
          "indexed": false,
          "internalType": "bytes",
          "name": "encryptedSecret",
          "type": "bytes"
        }
      ],
      "name": "PurchaseRequested",
      "type": "event"
    },
    {
      "inputs": [],
      "name": "COLLATERAL",
      "outputs": [
        {
          "internalType": "uint256",
          "name": "",
          "type": "uint256"
        }
      ],
      "stateMutability": "view",
      "type": "function"
    },
    {
      "inputs": [],
      "name": "MAX_INTERVAL",
      "outputs": [
        {
          "internalType": "uint256",
          "name": "",
          "type": "uint256"
        }
      ],
      "stateMutability": "view",
      "type": "function"
    },
    {
      "inputs": [
        {
          "internalType": "bytes32",
          "name": "",
          "type": "bytes32"
        }
      ],
      "name": "fileInfos",
      "outputs": [
        {
          "internalType": "address",
          "name": "seller",
          "type": "address"
        },
        {
          "internalType": "uint256",
          "name": "depth",
          "type": "uint256"
        },
        {
          "internalType": "uint256",
          "name": "price",
          "type": "uint256"
        },
        {
          "internalType": "bytes32",
          "name": "description",
          "type": "bytes32"
        }
      ],
      "stateMutability": "view",
      "type": "function"
    },
    {
      "inputs": [
        {
          "internalType": "bytes32",
          "name": "_fileHash",
          "type": "bytes32"
        },
        {
          "internalType": "uint256",
          "name": "_depth",
          "type": "uint256"
        },
        {
          "internalType": "uint256",
          "name": "_price",
          "type": "uint256"
        }
      ],
      "name": "publishFile",
      "outputs": [],
      "stateMutability": "nonpayable",
      "type": "function"
    },
    {
      "inputs": [
        {
          "internalType": "bytes32",
          "name": "_fileHash",
          "type": "bytes32"
        },
        {
          "internalType": "bytes32",
          "name": "_description",
          "type": "bytes32"
        }
      ],
      "name": "publishDescription",
      "outputs": [],
      "stateMutability": "nonpayable",
      "type": "function"
    },
    {
      "inputs": [
        {
          "internalType": "bytes32",
          "name": "_fileHash",
          "type": "bytes32"
        },
        {
          "internalType": "bytes32",
          "name": "_secretHash",
          "type": "bytes32"
        },
        {
          "internalType": "bytes",
          "name": "_encryptedSecret",
          "type": "bytes"
        }
      ],
      "name": "buy",
      "outputs": [],
      "stateMutability": "payable",
      "type": "function"
    },
    {
      "inputs": [
        {
          "internalType": "bytes32",
          "name": "_encryptedKey",
          "type": "bytes32"
        },
        {
          "internalType": "bytes32",
          "name": "_fileHash",
          "type": "bytes32"
        },
        {
          "internalType": "bytes32",
          "name": "_purchaseID",
          "type": "bytes32"
        }
      ],
      "name": "publishKey",
      "outputs": [],
      "stateMutability": "payable",
      "type": "function"
    },
    {
      "inputs": [
        {
          "internalType": "bytes32",
          "name": "_fileHash",
          "type": "bytes32"
        },
        {
          "internalType": "bytes32",
          "name": "_purchaseID",
          "type": "bytes32"
        },
        {
          "internalType": "bytes32",
          "name": "_secret",
          "type": "bytes32"
        },
        {
          "components": [
            {
              "internalType": "uint256",
              "name": "_committed_ri",
              "type": "uint256"
            },
            {
              "internalType": "bytes32",
              "name": "_committedSubKey",
              "type": "bytes32"
            },
            {
              "internalType": "bytes32[]",
              "name": "_merkleTreePath",
              "type": "bytes32[]"
            }
          ],
          "internalType": "struct ConfidentialFairExchange.POM",
          "name": "pom",
          "type": "tuple"
        }
      ],
      "name": "raiseObjection",
      "outputs": [],
      "stateMutability": "payable",
      "type": "function"
    },
    {
      "inputs": [
        {
          "internalType": "bytes32",
          "name": "_fileHash",
          "type": "bytes32"
        },
        {
          "internalType": "bytes32",
          "name": "_purchaseID",
          "type": "bytes32"
        }
      ],
      "name": "refundToBuyer",
      "outputs": [],
      "stateMutability": "payable",
      "type": "function"
    },
    {
      "inputs": [
        {
          "internalType": "bytes32",
          "name": "_fileHash",
          "type": "bytes32"
        },
        {
          "internalType": "bytes32",
          "name": "_purchaseID",
          "type": "bytes32"
        }
      ],
      "name": "withdraw",
      "outputs": [],
      "stateMutability": "payable",
      "type": "function"
    }
  ],
  "bytecode": "0x608060405234801561001057600080fd5b5061231f806100206000396000f3fe6080604052600436106100915760003560e01c80639f82956a116100595780639f82956a1461013e578063d961e0d814610167578063f704d82d146101a7578063fb6f358f146101c3578063fede6114146101df57610091565b806312d9373114610096578063165bea5e146100b257806324bbab8b146100ce57806363615149146100f957806381c34e9a14610115575b600080fd5b6100b060048036038101906100ab9190611775565b61020a565b005b6100cc60048036038101906100c79190611726565b61066a565b005b3480156100da57600080fd5b506100e3610939565b6040516100f0919061215a565b60405180910390f35b610113600480360381019061010e91906116ea565b61093e565b005b34801561012157600080fd5b5061013c600480360381019061013791906116ea565b610bfb565b005b34801561014a57600080fd5b506101656004803603810190610160919061185c565b610d4e565b005b34801561017357600080fd5b5061018e600480360381019061018991906116c1565b610f0e565b60405161019e9493929190611f08565b60405180910390f35b6101c160048036038101906101bc91906116ea565b610f5e565b005b6101dd60048036038101906101d891906117f0565b611219565b005b3480156101eb57600080fd5b506101f461154d565b604051610201919061215a565b60405180910390f35b8383600180600087815260200190815260200160002060000160009054906101000a900473ffffffffffffffffffffffffffffffffffffffff16826001600085815260200190815260200160002060000160009054906101000a900473ffffffffffffffffffffffffffffffffffffffff168560405160200161028e929190611e3d565b60405160208183030381529060405280519060200120146102e4576040517f08c379a00000000000000000000000000000000000000000000000000000000081526004016102db90611fba565b60405180910390fd5b8160048111156102f057fe5b6001600085815260200190815260200160002060020160009054906101000a900460ff16600481111561031f57fe5b1461035f576040517f08c379a00000000000000000000000000000000000000000000000000000000081526004016103569061203a565b60405180910390fd5b8073ffffffffffffffffffffffffffffffffffffffff163373ffffffffffffffffffffffffffffffffffffffff16146103cd576040517f08c379a00000000000000000000000000000000000000000000000000000000081526004016103c490611fda565b60405180910390fd5b86607860016000838152602001908152602001600020600101540142111561042a576040517f08c379a0000000000000000000000000000000000000000000000000000000008152600401610421906120fa565b60405180910390fd5b6001600089815260200190815260200160002060040154876040516020016104529190611e69565b60405160208183030381529060405280519060200120146104a8576040517f08c379a000000000000000000000000000000000000000000000000000000000815260040161049f906120da565b60405180910390fd5b600087600160008b81526020019081526020016000206003015418905060008188600001516040516020016104de929190611eb0565b6040516020818303038152906040528051906020012090508760200151811461065d5760008860200151896000015160405160200161051e929190611eb0565b60405160208183030381529060405280519060200120905060005b6000808e8152602001908152602001600020600101548110156105a557818a60400151828151811061056757fe5b6020026020010151604051602001610580929190611e84565b6040516020818303038152906040528051906020012091508080600101915050610539565b506000808d81526020019081526020016000206003015481141561065b576003600160008d815260200190815260200160002060020160006101000a81548160ff021916908360048111156105f657fe5b02179055503373ffffffffffffffffffffffffffffffffffffffff166108fc6000808f8152602001908152602001600020600201546064019081150290604051600060405180830381858888f19350505050158015610659573d6000803e3d6000fd5b505b505b5050505050505050505050565b8181600080600086815260200190815260200160002060000160009054906101000a900473ffffffffffffffffffffffffffffffffffffffff16826001600085815260200190815260200160002060000160009054906101000a900473ffffffffffffffffffffffffffffffffffffffff16856040516020016106ee929190611e3d565b6040516020818303038152906040528051906020012014610744576040517f08c379a000000000000000000000000000000000000000000000000000000000815260040161073b90611fba565b60405180910390fd5b81600481111561075057fe5b6001600085815260200190815260200160002060020160009054906101000a900460ff16600481111561077f57fe5b146107bf576040517f08c379a00000000000000000000000000000000000000000000000000000000081526004016107b69061203a565b60405180910390fd5b8073ffffffffffffffffffffffffffffffffffffffff163373ffffffffffffffffffffffffffffffffffffffff161461082d576040517f08c379a000000000000000000000000000000000000000000000000000000000815260040161082490611fda565b60405180910390fd5b84607860016000838152602001908152602001600020600101540142111561088a576040517f08c379a0000000000000000000000000000000000000000000000000000000008152600401610881906120fa565b60405180910390fd5b876001600088815260200190815260200160002060030181905550600180600088815260200190815260200160002060020160006101000a81548160ff021916908360048111156108d757fe5b0217905550426001600088815260200190815260200160002060010181905550857f62eb13606cfcd72bc7ed386e47e566f10e24a4fce72760cdac081d1d68dda438896040516109279190611f4d565b60405180910390a25050505050505050565b606481565b8181600160008086815260200190815260200160002060000160009054906101000a900473ffffffffffffffffffffffffffffffffffffffff16826001600085815260200190815260200160002060000160009054906101000a900473ffffffffffffffffffffffffffffffffffffffff16856040516020016109c2929190611e3d565b6040516020818303038152906040528051906020012014610a18576040517f08c379a0000000000000000000000000000000000000000000000000000000008152600401610a0f90611fba565b60405180910390fd5b816004811115610a2457fe5b6001600085815260200190815260200160002060020160009054906101000a900460ff166004811115610a5357fe5b14610a93576040517f08c379a0000000000000000000000000000000000000000000000000000000008152600401610a8a9061203a565b60405180910390fd5b8073ffffffffffffffffffffffffffffffffffffffff163373ffffffffffffffffffffffffffffffffffffffff1614610b01576040517f08c379a0000000000000000000000000000000000000000000000000000000008152600401610af890611fda565b60405180910390fd5b42607860016000888152602001908152602001600020600101540110610b5c576040517f08c379a0000000000000000000000000000000000000000000000000000000008152600401610b539061205a565b60405180910390fd5b60026001600087815260200190815260200160002060020160006101000a81548160ff02191690836004811115610b8f57fe5b02179055503373ffffffffffffffffffffffffffffffffffffffff166108fc60646000808a815260200190815260200160002060020154019081150290604051600060405180830381858888f19350505050158015610bf2573d6000803e3d6000fd5b50505050505050565b3373ffffffffffffffffffffffffffffffffffffffff1660008084815260200190815260200160002060000160009054906101000a900473ffffffffffffffffffffffffffffffffffffffff1673ffffffffffffffffffffffffffffffffffffffff1614610c9e576040517f08c379a0000000000000000000000000000000000000000000000000000000008152600401610c959061201a565b60405180910390fd5b6000801b6000808481526020019081526020016000206003015414610cf8576040517f08c379a0000000000000000000000000000000000000000000000000000000008152600401610cef9061213a565b60405180910390fd5b8060008084815260200190815260200160002060030181905550817ff5134cc1cd5f71f961deac76361825ef7e31a91c328fb58b4986039b20f1bd0082604051610d429190611f4d565b60405180910390a25050565b600073ffffffffffffffffffffffffffffffffffffffff1660008085815260200190815260200160002060000160009054906101000a900473ffffffffffffffffffffffffffffffffffffffff1673ffffffffffffffffffffffffffffffffffffffff1614610df2576040517f08c379a0000000000000000000000000000000000000000000000000000000008152600401610de9906120ba565b60405180910390fd5b60405180608001604052803373ffffffffffffffffffffffffffffffffffffffff1681526020018381526020018281526020016000801b81525060008085815260200190815260200160002060008201518160000160006101000a81548173ffffffffffffffffffffffffffffffffffffffff021916908373ffffffffffffffffffffffffffffffffffffffff160217905550602082015181600101556040820151816002015560608201518160030155905050827f8e3b76238df236816578eb0bb931ab096b4688aabbbff9c932ef58afc0796e544442604051602001610edb929190611edc565b6040516020818303038152906040528051906020012060001c604051610f01919061215a565b60405180910390a2505050565b60006020528060005260406000206000915090508060000160009054906101000a900473ffffffffffffffffffffffffffffffffffffffff16908060010154908060020154908060030154905084565b818160006001600085815260200190815260200160002060000160009054906101000a900473ffffffffffffffffffffffffffffffffffffffff16826001600085815260200190815260200160002060000160009054906101000a900473ffffffffffffffffffffffffffffffffffffffff1685604051602001610fe3929190611e3d565b6040516020818303038152906040528051906020012014611039576040517f08c379a000000000000000000000000000000000000000000000000000000000815260040161103090611fba565b60405180910390fd5b81600481111561104557fe5b6001600085815260200190815260200160002060020160009054906101000a900460ff16600481111561107457fe5b146110b4576040517f08c379a00000000000000000000000000000000000000000000000000000000081526004016110ab9061203a565b60405180910390fd5b8073ffffffffffffffffffffffffffffffffffffffff163373ffffffffffffffffffffffffffffffffffffffff1614611122576040517f08c379a000000000000000000000000000000000000000000000000000000000815260040161111990611fda565b60405180910390fd5b4260786001600088815260200190815260200160002060010154011061117d576040517f08c379a00000000000000000000000000000000000000000000000000000000081526004016111749061211a565b60405180910390fd5b60046001600087815260200190815260200160002060020160006101000a81548160ff021916908360048111156111b057fe5b02179055503373ffffffffffffffffffffffffffffffffffffffff166108fc600080898152602001908152602001600020600201549081150290604051600060405180830381858888f19350505050158015611210573d6000803e3d6000fd5b50505050505050565b600073ffffffffffffffffffffffffffffffffffffffff1660008086815260200190815260200160002060000160009054906101000a900473ffffffffffffffffffffffffffffffffffffffff1673ffffffffffffffffffffffffffffffffffffffff1614156112be576040517f08c379a00000000000000000000000000000000000000000000000000000000081526004016112b59061207a565b60405180910390fd5b6000801b600080868152602001908152602001600020600301541415611319576040517f08c379a000000000000000000000000000000000000000000000000000000000815260040161131090611ffa565b60405180910390fd5b600080858152602001908152602001600020600201543414611370576040517f08c379a00000000000000000000000000000000000000000000000000000000081526004016113679061209a565b60405180910390fd5b60003385604051602001611385929190611e11565b604051602081830303815290604052805190602001209050600060048111156113aa57fe5b6001600083815260200190815260200160002060020160009054906101000a900460ff1660048111156113d957fe5b14611419576040517f08c379a000000000000000000000000000000000000000000000000000000000815260040161141090611f9a565b60405180910390fd5b6040518060a001604052803373ffffffffffffffffffffffffffffffffffffffff1681526020014281526020016000600481111561145357fe5b81526020016000801b8152602001858152506001600083815260200190815260200160002060008201518160000160006101000a81548173ffffffffffffffffffffffffffffffffffffffff021916908373ffffffffffffffffffffffffffffffffffffffff1602179055506020820151816001015560408201518160020160006101000a81548160ff021916908360048111156114ed57fe5b0217905550606082015181600301556080820151816004015590505080857fed54ff2446ce8041198be1e702d273b544e201baf9ec8ed8552ac4cd8495ee5486868660405161153e93929190611f68565b60405180910390a35050505050565b607881565b600082601f83011261156357600080fd5b8135611576611571826121a2565b612175565b9150818183526020840193506020810190508385602084028201111561159b57600080fd5b60005b838110156115cb57816115b188826115d5565b84526020840193506020830192505060018101905061159e565b5050505092915050565b6000813590506115e4816122bb565b92915050565b60008083601f8401126115fc57600080fd5b8235905067ffffffffffffffff81111561161557600080fd5b60208301915083600182028301111561162d57600080fd5b9250929050565b60006060828403121561164657600080fd5b6116506060612175565b90506000611660848285016116ac565b6000830152506020611674848285016115d5565b602083015250604082013567ffffffffffffffff81111561169457600080fd5b6116a084828501611552565b60408301525092915050565b6000813590506116bb816122d2565b92915050565b6000602082840312156116d357600080fd5b60006116e1848285016115d5565b91505092915050565b600080604083850312156116fd57600080fd5b600061170b858286016115d5565b925050602061171c858286016115d5565b9150509250929050565b60008060006060848603121561173b57600080fd5b6000611749868287016115d5565b935050602061175a868287016115d5565b925050604061176b868287016115d5565b9150509250925092565b6000806000806080858703121561178b57600080fd5b6000611799878288016115d5565b94505060206117aa878288016115d5565b93505060406117bb878288016115d5565b925050606085013567ffffffffffffffff8111156117d857600080fd5b6117e487828801611634565b91505092959194509250565b6000806000806060858703121561180657600080fd5b6000611814878288016115d5565b9450506020611825878288016115d5565b935050604085013567ffffffffffffffff81111561184257600080fd5b61184e878288016115ea565b925092505092959194509250565b60008060006060848603121561187157600080fd5b600061187f868287016115d5565b9350506020611890868287016116ac565b92505060406118a1868287016116ac565b9150509250925092565b6118bc6118b7826121fe565b612265565b82525050565b6118cb816121ec565b82525050565b6118e26118dd826121ec565b612253565b82525050565b6118f181612210565b82525050565b61190861190382612210565b612277565b82525050565b600061191a83856121ca565b9350611927838584612244565b6119308361229d565b840190509392505050565b60006119486018836121db565b91507f507572636861736520616c7265616479207374617274656400000000000000006000830152602082019050919050565b60006119886011836121db565b91507f57726f6e672070757263686173652049440000000000000000000000000000006000830152602082019050919050565b60006119c86015836121db565b91507f57726f6e672066756e6374696f6e2063616c6c657200000000000000000000006000830152602082019050919050565b6000611a08602f836121db565b91507f54686520636f6e736964657265642066696c6520686173206e6f74206465736360008301527f72697074696f6e207365742079657400000000000000000000000000000000006020830152604082019050919050565b6000611a6e6027836121db565b91507f4f6e6c79207468652073656c6c65722063616e2073657420746865206465736360008301527f72697074696f6e000000000000000000000000000000000000000000000000006020830152604082019050919050565b6000611ad4601b836121db565b91507f507572636861736520696e207468652077726f6e6720737461746500000000006000830152602082019050919050565b6000611b146027836121db565b91507f54686520627579657220686173207374696c6c2074696d6520746f207368617260008301527f65206120504f4d000000000000000000000000000000000000000000000000006020830152604082019050919050565b6000611b7a6038836121db565b91507f4e6f2066696c652077697468207265717565737465642068617368206973207060008301527f726573656e7420696e73696465207468652073797374656d00000000000000006020830152604082019050919050565b6000611be06035836121db565b91507f5468652073656e7420616d6f756e74206f66206d6f6e6579206973206c6f776560008301527f72207468616e207468652066696c6520707269636500000000000000000000006020830152604082019050919050565b6000611c466023836121db565b91507f5468652066696c652068617320616c7265616479206265656e207075626c697360008301527f68656400000000000000000000000000000000000000000000000000000000006020830152604082019050919050565b6000611cac6018836121db565b91507f50726f7669646564207365637265742069732077726f6e6700000000000000006000830152602082019050919050565b6000611cec6013836121db565b91507f4d61782074696d656f75742072656163686564000000000000000000000000006000830152602082019050919050565b6000611d2c6034836121db565b91507f5468652073656c6c657220686173207374696c6c2074696d6520746f2073686160008301527f72652074686520656e63727970746564206b65790000000000000000000000006020830152604082019050919050565b6000611d926024836121db565b91507f546865206465736372697074696f6e2068617320616c7265616479206265656e60008301527f20736574000000000000000000000000000000000000000000000000000000006020830152604082019050919050565b611df48161223a565b82525050565b611e0b611e068261223a565b612293565b82525050565b6000611e1d82856118ab565b601482019150611e2d82846118f7565b6020820191508190509392505050565b6000611e4982856118d1565b601482019150611e5982846118f7565b6020820191508190509392505050565b6000611e7582846118f7565b60208201915081905092915050565b6000611e9082856118f7565b602082019150611ea082846118f7565b6020820191508190509392505050565b6000611ebc82856118f7565b602082019150611ecc8284611dfa565b6020820191508190509392505050565b6000611ee88285611dfa565b602082019150611ef88284611dfa565b6020820191508190509392505050565b6000608082019050611f1d60008301876118c2565b611f2a6020830186611deb565b611f376040830185611deb565b611f4460608301846118e8565b95945050505050565b6000602082019050611f6260008301846118e8565b92915050565b6000604082019050611f7d60008301866118e8565b8181036020830152611f9081848661190e565b9050949350505050565b60006020820190508181036000830152611fb38161193b565b9050919050565b60006020820190508181036000830152611fd38161197b565b9050919050565b60006020820190508181036000830152611ff3816119bb565b9050919050565b60006020820190508181036000830152612013816119fb565b9050919050565b6000602082019050818103600083015261203381611a61565b9050919050565b6000602082019050818103600083015261205381611ac7565b9050919050565b6000602082019050818103600083015261207381611b07565b9050919050565b6000602082019050818103600083015261209381611b6d565b9050919050565b600060208201905081810360008301526120b381611bd3565b9050919050565b600060208201905081810360008301526120d381611c39565b9050919050565b600060208201905081810360008301526120f381611c9f565b9050919050565b6000602082019050818103600083015261211381611cdf565b9050919050565b6000602082019050818103600083015261213381611d1f565b9050919050565b6000602082019050818103600083015261215381611d85565b9050919050565b600060208201905061216f6000830184611deb565b92915050565b6000604051905081810181811067ffffffffffffffff8211171561219857600080fd5b8060405250919050565b600067ffffffffffffffff8211156121b957600080fd5b602082029050602081019050919050565b600082825260208201905092915050565b600082825260208201905092915050565b60006121f78261221a565b9050919050565b60006122098261221a565b9050919050565b6000819050919050565b600073ffffffffffffffffffffffffffffffffffffffff82169050919050565b6000819050919050565b82818337600083830152505050565b600061225e82612281565b9050919050565b600061227082612281565b9050919050565b6000819050919050565b600061228c826122ae565b9050919050565b6000819050919050565b6000601f19601f8301169050919050565b60008160601b9050919050565b6122c481612210565b81146122cf57600080fd5b50565b6122db8161223a565b81146122e657600080fd5b5056fea2646970667358221220b9faf54bb4831a5420ef317aeb1358a6d95df31291cbc94431645f9f262036f564736f6c63430007000033",
  "source": "// SPDX-License-Identifier: GPL-3.0\r\npragma solidity >=0.7.0 <0.9.0;\r\npragma experimental ABIEncoderV2;\r\n\r\ncontract ConfidentialFairExchange {\r\n   \r\n    uint constant public MAX_INTERVAL = 2 minutes; // 2 mins  timemax inteval between operations \r\n    uint constant public COLLATERAL = 100 wei; \r\n\r\n    /******** INIT PHASE *******/\r\n    event FileRandomness(bytes32 indexed fileHash, uint randomness); \r\n    event FilePublished(bytes32 indexed fileHash, bytes32 description); \r\n\r\n    // struct containing info about the file to sell \r\n    struct FileInfo {\r\n        address seller; \r\n        uint depth;  // description depth   \r\n        uint price; \r\n        bytes32 description; \r\n    }\r\n\r\n    // mapping associating to each hash the corrisponding FileInfo struct \r\n    mapping(bytes32 => FileInfo) public fileInfos; \r\n\r\n    function publishFile(bytes32 _fileHash, uint _depth, uint _price) public {\r\n        require(fileInfos[_fileHash].seller == address(0), \"The file has already been published\"); \r\n\r\n        fileInfos[_fileHash] = FileInfo(msg.sender, _depth, _price, 0); \r\n        emit FileRandomness(_fileHash, uint(keccak256(abi.encodePacked(block.difficulty, block.timestamp))));\r\n    }\r\n\r\n    function publishDescription(bytes32 _fileHash, bytes32 _description) public {\r\n        require(fileInfos[_fileHash].seller == msg.sender, \"Only the seller can set the description\"); \r\n        require(fileInfos[_fileHash].description == 0, \"The description has already been set\"); \r\n\r\n        fileInfos[_fileHash].description = _description; \r\n        emit FilePublished(_fileHash, _description);\r\n    }\r\n\r\n    /**** BUYING PHASE *****/\r\n    event PurchaseRequested(bytes32 indexed fileHash, bytes32 indexed purchaseID, bytes32 secretHash, bytes encryptedSecret); \r\n    event EncryptedKeyPublished(bytes32 indexed purchaseID, bytes32 encryptedKey); \r\n\r\n    enum State { Requested, EncryptedKeyShared, Completed, Invalid, Timeout} \r\n    struct Purchase { \r\n        address buyer; \r\n        uint lastOperationTime; \r\n        State state; \r\n        bytes32 encryptedKey;\r\n        bytes32 secretHash;  \r\n    }\r\n\r\n    mapping(bytes32 => Purchase) purchases; \r\n    function buy(bytes32 _fileHash, bytes32 _secretHash, bytes calldata _encryptedSecret) \r\n        public payable {\r\n        \r\n        require(fileInfos[_fileHash].seller != address(0), \"No file with requested hash is present inside the system\"); \r\n        require(fileInfos[_fileHash].description != 0, \"The considered file has not description set yet\");  \r\n        require(msg.value == fileInfos[_fileHash].price, \"The sent amount of money is lower than the file price\"); \r\n\r\n        bytes32 purchaseID = bytes32(keccak256(abi.encodePacked(msg.sender, _fileHash)));        \r\n        require(purchases[purchaseID].state == State.Requested, \"Purchase already started\"); \r\n        purchases[purchaseID] = Purchase(msg.sender, block.timestamp, State.Requested, 0, _secretHash);  \r\n\r\n        emit PurchaseRequested(_fileHash, purchaseID, _secretHash, _encryptedSecret);\r\n    }\r\n\r\n    /* buyer call buy -> seller check H(D(_encryptedSecret)) == _secretHash  \r\n        -> if false: wait MAX_INTERVAL and call withdraw \r\n        -> if true: call publishKey (with collateral)\r\n    */ \r\n    function publishKey(bytes32 _encryptedKey, bytes32 _fileHash, bytes32 _purchaseID) \r\n        Only(_fileHash, _purchaseID, State.Requested, fileInfos[_fileHash].seller)\r\n        InTime(_purchaseID) \r\n        public payable {\r\n        \r\n        purchases[_purchaseID].encryptedKey = _encryptedKey; \r\n        purchases[_purchaseID].state = State.EncryptedKeyShared; \r\n        purchases[_purchaseID].lastOperationTime = block.timestamp; \r\n        emit EncryptedKeyPublished(_purchaseID, _encryptedKey);\r\n    }\r\n\r\n    // Complain about the goods by proving that \r\n    //  i. a committed subkey is different from the subkey derived from the master key; and\r\n    // ii. and this committed subkey is part of the description.\r\n    struct POM {\r\n        uint _committed_ri; \r\n        bytes32 _committedSubKey; \r\n        bytes32[] _merkleTreePath; \r\n    }\r\n    function raiseObjection(bytes32 _fileHash, bytes32 _purchaseID, bytes32 _secret,\r\n        POM memory pom)\r\n        Only(_fileHash, _purchaseID, State.EncryptedKeyShared, purchases[_purchaseID].buyer)\r\n        InTime(_purchaseID)\r\n        public\r\n        payable\r\n    {\r\n        require(keccak256(abi.encodePacked(_secret)) == purchases[_purchaseID].secretHash, \"Provided secret is wrong\"); \r\n        bytes32 key = purchases[_purchaseID].encryptedKey ^ _secret; \r\n        \r\n        bytes32 computedSubkey = keccak256(abi.encodePacked(key, pom._committed_ri));\r\n        // Check if the subkey supplied by buyer is different from the subkey derived from masterKey.\r\n        if (computedSubkey != pom._committedSubKey) {\r\n            bytes32 committedNode = keccak256(abi.encodePacked(pom._committedSubKey, pom._committed_ri));\r\n            \r\n            // When the loop exits, committedNode will hold the root of Merkle Tree.\r\n            for (uint i = 0; i < fileInfos[_fileHash].depth; i++)\r\n                committedNode = keccak256(abi.encodePacked(committedNode, pom._merkleTreePath[i]));\r\n            \r\n            // Check if the root equals description.\r\n            if (committedNode == fileInfos[_fileHash].description) {\r\n                // If so, the buyer is right and gets the deposit + collateral back.\r\n                purchases[_purchaseID].state = State.Invalid; \r\n                payable(msg.sender).transfer(COLLATERAL + fileInfos[_fileHash].price);\r\n            }\r\n        }\r\n    }\r\n\r\n    // Refund to buyer if seller does not publish master key in time.   \r\n    function refundToBuyer(bytes32 _fileHash, bytes32 _purchaseID)\r\n        Only(_fileHash, _purchaseID, State.Requested, purchases[_purchaseID].buyer)\r\n        public payable {\r\n        \r\n        require(purchases[_purchaseID].lastOperationTime + MAX_INTERVAL < block.timestamp, \"The seller has still time to share the encrypted key\"); \r\n        purchases[_purchaseID].state = State.Timeout; \r\n        payable(msg.sender).transfer(fileInfos[_fileHash].price);\r\n    }\r\n\r\n    function withdraw(bytes32 _fileHash, bytes32 _purchaseID) \r\n        Only(_fileHash, _purchaseID, State.EncryptedKeyShared, fileInfos[_fileHash].seller)\r\n        public payable \r\n    {\r\n        require(purchases[_purchaseID].lastOperationTime + MAX_INTERVAL < block.timestamp, \"The buyer has still time to share a POM\"); \r\n        purchases[_purchaseID].state = State.Completed; \r\n        payable(msg.sender).transfer(fileInfos[_fileHash].price + COLLATERAL);\r\n    }\r\n     \r\n    modifier InTime(bytes32 _purchaseID) {\r\n        require(block.timestamp <= purchases[_purchaseID].lastOperationTime + MAX_INTERVAL, \"Max timeout reached\"); \r\n        _; \r\n    }\r\n\r\n    modifier Only(bytes32 _fileHash, bytes32 _purchaseID, State _state, address caller) {\r\n        require(bytes32(keccak256(abi.encodePacked(purchases[_purchaseID].buyer, _fileHash))) == _purchaseID, \"Wrong purchase ID\"); \r\n        require(purchases[_purchaseID].state == _state, \"Purchase in the wrong state\"); \r\n        require(msg.sender == caller, \"Wrong function caller\"); \r\n        _;\r\n    }\r\n}",
  "sourcePath": "C:\\Users\\Egon\\Desktop\\Thesis\\confidential-fair-exchange\\contracts\\conf-fair-exchange.sol",
  "compiler": {
    "name": "solc",
    "version": "0.7.0+commit.9e61f92b.Emscripten.clang",
    "optimizer": false,
    "runs": 200
  },
  "schemaVersion": "2.3.5",
  "updatedAt": "2022-11-25T10:40:30.426Z"
}