{
  "contractName": "ConfidentialFairExchange",
  "abi": [
    {
      "inputs": [],
      "stateMutability": "payable",
      "type": "constructor"
    },
    {
      "anonymous": false,
      "inputs": [],
      "name": "ExecutionCompleted",
      "type": "event"
    },
    {
      "anonymous": false,
      "inputs": [],
      "name": "PaidWithDescription",
      "type": "event"
    },
    {
      "anonymous": false,
      "inputs": [],
      "name": "PublishedMasterKey",
      "type": "event"
    },
    {
      "inputs": [],
      "name": "masterKey",
      "outputs": [
        {
          "internalType": "bytes32",
          "name": "",
          "type": "bytes32"
        }
      ],
      "stateMutability": "view",
      "type": "function"
    },
    {
      "inputs": [],
      "name": "state",
      "outputs": [
        {
          "internalType": "enum ConfidentialFairExchange.State",
          "name": "",
          "type": "uint8"
        }
      ],
      "stateMutability": "view",
      "type": "function"
    },
    {
      "inputs": [
        {
          "internalType": "bytes32",
          "name": "_description",
          "type": "bytes32"
        }
      ],
      "name": "PayWithDescription",
      "outputs": [],
      "stateMutability": "payable",
      "type": "function"
    },
    {
      "inputs": [],
      "name": "RefundToBuyer",
      "outputs": [],
      "stateMutability": "payable",
      "type": "function"
    },
    {
      "inputs": [
        {
          "internalType": "bytes32",
          "name": "_masterKey",
          "type": "bytes32"
        }
      ],
      "name": "PublishMasterKey",
      "outputs": [],
      "stateMutability": "nonpayable",
      "type": "function"
    },
    {
      "inputs": [
        {
          "internalType": "uint256",
          "name": "_committed_ri",
          "type": "uint256"
        },
        {
          "internalType": "bytes32",
          "name": "_committedSubKey",
          "type": "bytes32"
        },
        {
          "internalType": "bytes32[]",
          "name": "_merkleTreePath",
          "type": "bytes32[]"
        }
      ],
      "name": "RaiseObjection",
      "outputs": [],
      "stateMutability": "payable",
      "type": "function"
    },
    {
      "inputs": [],
      "name": "TransferToSeller",
      "outputs": [],
      "stateMutability": "nonpayable",
      "type": "function"
    }
  ],
  "bytecode": "0x60806040526000600160006101000a81548173ffffffffffffffffffffffffffffffffffffffff021916908373ffffffffffffffffffffffffffffffffffffffff160217905550336000806101000a81548173ffffffffffffffffffffffffffffffffffffffff021916908373ffffffffffffffffffffffffffffffffffffffff160217905550610a9c806100956000396000f3fe6080604052600436106100705760003560e01c8063c19d93fb1161004e578063c19d93fb146100d3578063c4cd9f49146100fe578063d4ef6cb01461011a578063d8309ae11461012457610070565b8063705dd281146100755780638afe35b91461008c57806394952cc7146100b7575b600080fd5b34801561008157600080fd5b5061008a61014d565b005b34801561009857600080fd5b506100a1610270565b6040516100ae9190610915565b60405180910390f35b6100d160048036038101906100cc9190610881565b610276565b005b3480156100df57600080fd5b506100e861046d565b6040516100f59190610982565b60405180910390f35b61011860048036038101906101139190610858565b610480565b005b610122610584565b005b34801561013057600080fd5b5061014b60048036038101906101469190610858565b6106ac565b005b60008054906101000a900473ffffffffffffffffffffffffffffffffffffffff166002805442118273ffffffffffffffffffffffffffffffffffffffff163373ffffffffffffffffffffffffffffffffffffffff16146101ac57600080fd5b8160038111156101b857fe5b600560009054906101000a900460ff1660038111156101d357fe5b146101dd57600080fd5b806101e757600080fd5b7f82077b690643827ecfb7e762aee114562c2d66ee8a62d73a120543a2e93370f060405160405180910390a16003600560006101000a81548160ff0219169083600381111561023257fe5b021790555060008054906101000a900473ffffffffffffffffffffffffffffffffffffffff1673ffffffffffffffffffffffffffffffffffffffff16ff5b60045481565b600160009054906101000a900473ffffffffffffffffffffffffffffffffffffffff166002805442108273ffffffffffffffffffffffffffffffffffffffff163373ffffffffffffffffffffffffffffffffffffffff16146102d757600080fd5b8160038111156102e357fe5b600560009054906101000a900460ff1660038111156102fe57fe5b1461030857600080fd5b8061031257600080fd5b600060045487604051602001610329929190610959565b604051602081830303815290604052805190602001209050858114610464576000868860405160200161035d929190610959565b60405160208183030381529060405280519060200120905060005b60108110156103cc578187828151811061038e57fe5b60200260200101516040516020016103a7929190610930565b6040516020818303038152906040528051906020012091508080600101915050610378565b50600354811415610462577f82077b690643827ecfb7e762aee114562c2d66ee8a62d73a120543a2e93370f060405160405180910390a16003600560006101000a81548160ff0219169083600381111561042257fe5b0217905550600160009054906101000a900473ffffffffffffffffffffffffffffffffffffffff1673ffffffffffffffffffffffffffffffffffffffff16ff5b505b50505050505050565b600560009054906101000a900460ff1681565b600160009054906101000a900473ffffffffffffffffffffffffffffffffffffffff166000600134148273ffffffffffffffffffffffffffffffffffffffff163373ffffffffffffffffffffffffffffffffffffffff16146104e157600080fd5b8160038111156104ed57fe5b600560009054906101000a900460ff16600381111561050857fe5b1461051257600080fd5b8061051c57600080fd5b7f12ea17a123346d563a6b48a2be06caa60d891bf7825a2e7ed00c4be1c1c6f05460405160405180910390a16001600560006101000a81548160ff0219169083600381111561056757fe5b021790555083600381905550610258420160028190555050505050565b600160009054906101000a900473ffffffffffffffffffffffffffffffffffffffff16600160025442118273ffffffffffffffffffffffffffffffffffffffff163373ffffffffffffffffffffffffffffffffffffffff16146105e657600080fd5b8160038111156105f257fe5b600560009054906101000a900460ff16600381111561060d57fe5b1461061757600080fd5b8061062157600080fd5b7f82077b690643827ecfb7e762aee114562c2d66ee8a62d73a120543a2e93370f060405160405180910390a16003600560006101000a81548160ff0219169083600381111561066c57fe5b0217905550600160009054906101000a900473ffffffffffffffffffffffffffffffffffffffff1673ffffffffffffffffffffffffffffffffffffffff16ff5b60008054906101000a900473ffffffffffffffffffffffffffffffffffffffff166001808273ffffffffffffffffffffffffffffffffffffffff163373ffffffffffffffffffffffffffffffffffffffff161461070857600080fd5b81600381111561071457fe5b600560009054906101000a900460ff16600381111561072f57fe5b1461073957600080fd5b8061074357600080fd5b7f556e225502a432ba3e25dc77f99030b54af7244c03156dea7206e35377fe63c960405160405180910390a16002600560006101000a81548160ff0219169083600381111561078e57fe5b021790555083600481905550610258420160028190555050505050565b600082601f8301126107bc57600080fd5b81356107cf6107ca826109ca565b61099d565b915081818352602084019350602081019050838560208402820111156107f457600080fd5b60005b83811015610824578161080a888261082e565b8452602084019350602083019250506001810190506107f7565b5050505092915050565b60008135905061083d81610a38565b92915050565b60008135905061085281610a4f565b92915050565b60006020828403121561086a57600080fd5b60006108788482850161082e565b91505092915050565b60008060006060848603121561089657600080fd5b60006108a486828701610843565b93505060206108b58682870161082e565b925050604084013567ffffffffffffffff8111156108d257600080fd5b6108de868287016107ab565b9150509250925092565b6108f1816109f2565b82525050565b61090081610a19565b82525050565b61090f81610a0f565b82525050565b600060208201905061092a60008301846108e8565b92915050565b600060408201905061094560008301856108e8565b61095260208301846108e8565b9392505050565b600060408201905061096e60008301856108e8565b61097b6020830184610906565b9392505050565b600060208201905061099760008301846108f7565b92915050565b6000604051905081810181811067ffffffffffffffff821117156109c057600080fd5b8060405250919050565b600067ffffffffffffffff8211156109e157600080fd5b602082029050602081019050919050565b6000819050919050565b6000819050610a0a82610a2b565b919050565b6000819050919050565b6000610a24826109fc565b9050919050565b60048110610a3557fe5b50565b610a41816109f2565b8114610a4c57600080fd5b50565b610a5881610a0f565b8114610a6357600080fd5b5056fea26469706673582212206b7d5081ae8b2f57f87641ffa5b56df2bbbe7b59922d7da68d0a9a600203cb1664736f6c63430007000033",
  "source": "// SPDX-License-Identifier: GPL-3.0\r\npragma solidity >=0.7.0 <0.9.0;\r\npragma experimental ABIEncoderV2;\r\n\r\ncontract ConfidentialFairExchange {\r\n    \r\n    address payable seller;\r\n    address payable buyer = payable(address(0)); // BUYER_ADDRESS_HERE;\r\n\r\n    // Added 10 minutes to timeout in each function call.\r\n    uint timeout;\r\n\r\n    uint constant depth= 16; // DEPTH_OF_MERKLE_TREE;\r\n    uint constant price = 1 wei; // GOODS_PRICE;\r\n\r\n    bytes32 description;\r\n    bytes32 public masterKey;\r\n\r\n    enum State { Created, Paid, Published, Inactive }\r\n    // Initial value of state is State.Created.\r\n    State public state;\r\n\r\n    event PaidWithDescription();\r\n    event PublishedMasterKey();\r\n    event ExecutionCompleted();\r\n\r\n    constructor() public payable {\r\n        seller = payable(msg.sender);\r\n    }\r\n\r\n    // Deposit the goods' price and assign description.\r\n    function PayWithDescription(bytes32 _description)\r\n        public\r\n        only(buyer, State.Created, msg.value == price)\r\n        payable\r\n    {\r\n        emit PaidWithDescription();\r\n        state = State.Paid;\r\n        description = _description;\r\n        timeout = block.timestamp + 10 minutes;\r\n    }\r\n\r\n    // Refund to buyer if seller does not publish master key in time.\r\n    function RefundToBuyer()\r\n        public\r\n        only(buyer, State.Paid, block.timestamp > timeout)\r\n        payable\r\n    {\r\n        emit ExecutionCompleted();\r\n        state = State.Inactive;\r\n        selfdestruct(buyer);\r\n    }\r\n\r\n    // Publish the master key.\r\n    function PublishMasterKey(bytes32 _masterKey)\r\n        public\r\n        only(seller, State.Paid, true)\r\n    {\r\n        emit PublishedMasterKey();\r\n        state = State.Published;\r\n        masterKey = _masterKey;\r\n        timeout = block.timestamp + 10 minutes;\r\n    }\r\n\r\n    // Complain about the goods by proving that \r\n    //  i. a committed subkey is different from the subkey derived from the master key; and\r\n    // ii. and this committed subkey is part of the description.\r\n    function RaiseObjection(uint _committed_ri, bytes32 _committedSubKey, bytes32[] memory _merkleTreePath)\r\n        public\r\n        only(buyer, State.Published, block.timestamp < timeout)\r\n        payable\r\n    {\r\n        bytes32 computedSubkey = keccak256(abi.encode(masterKey, _committed_ri));\r\n        // Check if the subkey supplied by buyer is different from the subkey derived from masterKey.\r\n        if (computedSubkey != _committedSubKey)\r\n        {\r\n            bytes32 committedNode = keccak256(abi.encode(_committedSubKey, _committed_ri));\r\n            \r\n            // When the loop exits, committedNode will hold the root of Merkle Tree.\r\n            for (uint i = 0; i < depth; i++)\r\n                committedNode = keccak256(abi.encode(committedNode, _merkleTreePath[i]));\r\n            \r\n            // Check if the root equals description.\r\n            if (committedNode == description)\r\n            {\r\n                // If so, the buyer is right and gets the deposit back.\r\n                emit ExecutionCompleted();\r\n                state = State.Inactive;\r\n                selfdestruct(buyer);\r\n            }\r\n        }\r\n    }\r\n\r\n    // If objection timeouts, transfer the balance to seller and destruct the contract.\r\n    function TransferToSeller()\r\n        public\r\n        only(seller, State.Published, block.timestamp > timeout)\r\n    {\r\n        emit ExecutionCompleted();\r\n        state = State.Inactive;\r\n        selfdestruct(seller);\r\n    }\r\n\r\n    // Check if all required conditions are satisfied.\r\n    modifier only(address _address, State _state, bool _condition)\r\n    {\r\n        require(msg.sender == _address);\r\n        require(state == _state);\r\n        require(_condition);\r\n        _;\r\n    }\r\n}\r\n",
  "sourcePath": "C:\\Users\\Egon\\Desktop\\Thesis\\confidential-fair-exchange\\contracts\\fairdex.sol",
  "compiler": {
    "name": "solc",
    "version": "0.7.0+commit.9e61f92b.Emscripten.clang",
    "optimizer": false,
    "runs": 200
  },
  "schemaVersion": "2.3.5",
  "updatedAt": "2022-06-29T17:59:29.379Z"
}